{
  "contractName": "ProductRegistration",
  "abi": [
    {
      "inputs": [],
      "payable": false,
      "stateMutability": "nonpayable",
      "type": "constructor"
    },
    {
      "anonymous": false,
      "inputs": [
        {
          "indexed": true,
          "internalType": "uint256",
          "name": "id",
          "type": "uint256"
        },
        {
          "indexed": true,
          "internalType": "string",
          "name": "productName",
          "type": "string"
        },
        {
          "indexed": false,
          "internalType": "string",
          "name": "productDescription",
          "type": "string"
        },
        {
          "indexed": false,
          "internalType": "uint256",
          "name": "dateOfRegistration",
          "type": "uint256"
        },
        {
          "indexed": false,
          "internalType": "string",
          "name": "geoLocation",
          "type": "string"
        },
        {
          "indexed": false,
          "internalType": "string",
          "name": "batch",
          "type": "string"
        },
        {
          "indexed": false,
          "internalType": "uint256",
          "name": "price",
          "type": "uint256"
        },
        {
          "indexed": false,
          "internalType": "string[]",
          "name": "certifications",
          "type": "string[]"
        }
      ],
      "name": "ProductRegistered",
      "type": "event"
    },
    {
      "anonymous": false,
      "inputs": [
        {
          "indexed": true,
          "internalType": "uint256",
          "name": "id",
          "type": "uint256"
        },
        {
          "indexed": false,
          "internalType": "string",
          "name": "geoLocation",
          "type": "string"
        },
        {
          "indexed": false,
          "internalType": "uint256",
          "name": "dateOfRegistration",
          "type": "uint256"
        },
        {
          "indexed": false,
          "internalType": "uint256",
          "name": "price",
          "type": "uint256"
        },
        {
          "indexed": false,
          "internalType": "address",
          "name": "updatedBy",
          "type": "address"
        }
      ],
      "name": "ProductUpdated",
      "type": "event"
    },
    {
      "constant": true,
      "inputs": [
        {
          "internalType": "uint256",
          "name": "",
          "type": "uint256"
        }
      ],
      "name": "lastUpdatedBy",
      "outputs": [
        {
          "internalType": "address",
          "name": "",
          "type": "address"
        }
      ],
      "payable": false,
      "stateMutability": "view",
      "type": "function"
    },
    {
      "constant": true,
      "inputs": [],
      "name": "productCount",
      "outputs": [
        {
          "internalType": "uint256",
          "name": "",
          "type": "uint256"
        }
      ],
      "payable": false,
      "stateMutability": "view",
      "type": "function"
    },
    {
      "constant": true,
      "inputs": [
        {
          "internalType": "uint256",
          "name": "",
          "type": "uint256"
        }
      ],
      "name": "products",
      "outputs": [
        {
          "internalType": "uint256",
          "name": "id",
          "type": "uint256"
        },
        {
          "internalType": "string",
          "name": "productName",
          "type": "string"
        },
        {
          "internalType": "string",
          "name": "productDescription",
          "type": "string"
        },
        {
          "internalType": "uint256",
          "name": "dateOfRegistration",
          "type": "uint256"
        },
        {
          "internalType": "string",
          "name": "batch",
          "type": "string"
        },
        {
          "internalType": "string",
          "name": "manufacturer",
          "type": "string"
        },
        {
          "internalType": "string",
          "name": "distributor",
          "type": "string"
        },
        {
          "internalType": "string",
          "name": "retailer",
          "type": "string"
        },
        {
          "internalType": "address",
          "name": "owner",
          "type": "address"
        },
        {
          "internalType": "bool",
          "name": "isRegistered",
          "type": "bool"
        }
      ],
      "payable": false,
      "stateMutability": "view",
      "type": "function"
    },
    {
      "constant": false,
      "inputs": [
        {
          "internalType": "string",
          "name": "productName",
          "type": "string"
        },
        {
          "internalType": "string",
          "name": "productDescription",
          "type": "string"
        },
        {
          "internalType": "string",
          "name": "geoLocation",
          "type": "string"
        },
        {
          "internalType": "string",
          "name": "batch",
          "type": "string"
        },
        {
          "internalType": "uint256",
          "name": "price",
          "type": "uint256"
        },
        {
          "internalType": "string[]",
          "name": "certifications",
          "type": "string[]"
        },
        {
          "internalType": "string",
          "name": "manufacturer",
          "type": "string"
        },
        {
          "internalType": "string",
          "name": "distributor",
          "type": "string"
        },
        {
          "internalType": "string",
          "name": "retailer",
          "type": "string"
        }
      ],
      "name": "registerProduct",
      "outputs": [],
      "payable": false,
      "stateMutability": "nonpayable",
      "type": "function"
    },
    {
      "constant": false,
      "inputs": [
        {
          "internalType": "uint256",
          "name": "id",
          "type": "uint256"
        },
        {
          "internalType": "string",
          "name": "geoLocation",
          "type": "string"
        },
        {
          "internalType": "uint256",
          "name": "price",
          "type": "uint256"
        },
        {
          "internalType": "string[]",
          "name": "certifications",
          "type": "string[]"
        },
        {
          "internalType": "string",
          "name": "distributor",
          "type": "string"
        },
        {
          "internalType": "string",
          "name": "retailer",
          "type": "string"
        }
      ],
      "name": "updateProduct",
      "outputs": [],
      "payable": false,
      "stateMutability": "nonpayable",
      "type": "function"
    },
    {
      "constant": false,
      "inputs": [
        {
          "internalType": "uint256",
          "name": "id",
          "type": "uint256"
        },
        {
          "internalType": "address",
          "name": "newOwner",
          "type": "address"
        }
      ],
      "name": "addOwner",
      "outputs": [],
      "payable": false,
      "stateMutability": "nonpayable",
      "type": "function"
    },
    {
      "constant": true,
      "inputs": [
        {
          "internalType": "uint256",
          "name": "id",
          "type": "uint256"
        }
      ],
      "name": "getProduct",
      "outputs": [
        {
          "components": [
            {
              "internalType": "uint256",
              "name": "id",
              "type": "uint256"
            },
            {
              "internalType": "string",
              "name": "productName",
              "type": "string"
            },
            {
              "internalType": "string",
              "name": "productDescription",
              "type": "string"
            },
            {
              "internalType": "uint256",
              "name": "dateOfRegistration",
              "type": "uint256"
            },
            {
              "internalType": "string[]",
              "name": "geoLocations",
              "type": "string[]"
            },
            {
              "internalType": "string",
              "name": "batch",
              "type": "string"
            },
            {
              "internalType": "uint256[]",
              "name": "prices",
              "type": "uint256[]"
            },
            {
              "internalType": "string[]",
              "name": "certifications",
              "type": "string[]"
            },
            {
              "internalType": "string",
              "name": "manufacturer",
              "type": "string"
            },
            {
              "internalType": "string",
              "name": "distributor",
              "type": "string"
            },
            {
              "internalType": "string",
              "name": "retailer",
              "type": "string"
            },
            {
              "internalType": "address",
              "name": "owner",
              "type": "address"
            },
            {
              "internalType": "bool",
              "name": "isRegistered",
              "type": "bool"
            }
          ],
          "internalType": "struct ProductRegistration.Product",
          "name": "",
          "type": "tuple"
        }
      ],
      "payable": false,
      "stateMutability": "view",
      "type": "function"
    }
  ],
  "bytecode": "0x608060405260006002553480156200001657600080fd5b506040805160028082526060828101909352816020015b60608152602001906001900390816200002d5790505090506040518060400160405280600e81526020016d43657274696669636174696f6e3160901b815250816000815181106200007a57fe5b60200260200101819052506040518060400160405280600e81526020016d21b2b93a34b334b1b0ba34b7b71960911b81525081600181518110620000ba57fe5b6020026020010181905250620001dd6040518060400160405280600881526020016750726f647563743160c01b8152506040518060400160405280601581526020017f50726f64756374204465736372697074696f6e20310000000000000000000000815250604051806040016040528060098152602001684c6f636174696f6e3160b81b8152506040518060400160405280600681526020016542617463683160d01b8152506064866040518060400160405280600d81526020016c4d616e7566616374757265723160981b8152506040518060400160405280600c81526020016b4469737472696275746f723160a01b8152506040518060400160405280600981526020016852657461696c65723160b81b815250620003ab60201b60201c565b6040805160028082526060828101909352816020015b6060815260200190600190039081620001f35790505090506040518060400160405280600e81526020016d43657274696669636174696f6e3360901b815250816000815181106200024057fe5b60200260200101819052506040518060400160405280600e81526020016d10d95c9d1a599a58d85d1a5bdb8d60921b815250816001815181106200028057fe5b6020026020010181905250620003a360405180604001604052806008815260200167283937b23ab1ba1960c11b8152506040518060400160405280601581526020017f50726f64756374204465736372697074696f6e20320000000000000000000000815250604051806040016040528060098152602001682637b1b0ba34b7b71960b91b815250604051806040016040528060068152602001652130ba31b41960d11b81525060c8866040518060400160405280600d81526020016c26b0b73ab330b1ba3ab932b91960991b8152506040518060400160405280600c81526020016b2234b9ba3934b13aba37b91960a11b815250604051806040016040528060098152602001682932ba30b4b632b91960b91b815250620003ab60201b60201c565b505062000c02565b6000895111620003d85760405162461bcd60e51b8152600401620003cf9062000b77565b60405180910390fd5b6000835111620003fc5760405162461bcd60e51b8152600401620003cf9062000b5f565b6000885111620004205760405162461bcd60e51b8152600401620003cf9062000b89565b6000865111620004445760405162461bcd60e51b8152600401620003cf9062000b9b565b60028054600190810190915560408051828152808201909152606091816020015b60608152602001906001900390816200046557905050905087816000815181106200048c57fe5b60209081029190910101526040805160018082528183019092526060918160200160208202803883390190505090508681600081518110620004ca57fe5b602002602001018181525050604051806101a0016040528060025481526020018c81526020018b8152602001428152602001838152602001898152602001828152602001878152602001868152602001858152602001848152602001336001600160a01b031681526020016001151581525060008060025481526020019081526020016000206000820151816000015560208201518160010190805190602001906200057892919062000728565b50604082015180516200059691600284019160209091019062000728565b506060820151600382015560808201518051620005be916004840191602090910190620007ad565b5060a08201518051620005dc91600584019160209091019062000728565b5060c08201518051620005fa9160068401916020909101906200080d565b5060e0820151805162000618916007840191602090910190620007ad565b5061010082015180516200063791600884019160209091019062000728565b5061012082015180516200065691600984019160209091019062000728565b5061014082015180516200067591600a84019160209091019062000728565b50610160820151600b9091018054610180909301511515600160a01b0260ff60a01b196001600160a01b039093166001600160a01b03199094169390931791909116919091179055604051620006cd908c9062000ad2565b60405180910390206002547f905a544ae50b7754b8f8893734927226aab6442d2268c84df2253e01549a91b98c428d8d8d8d604051620007139695949392919062000ae0565b60405180910390a35050505050505050505050565b828054600181600116156101000203166002900490600052602060002090601f016020900481019282601f106200076b57805160ff19168380011785556200079b565b828001600101855582156200079b579182015b828111156200079b5782518255916020019190600101906200077e565b50620007a99291506200084a565b5090565b828054828255906000526020600020908101928215620007ff579160200282015b82811115620007ff5782518051620007ee91849160209091019062000728565b5091602001919060010190620007ce565b50620007a99291506200086a565b8280548282559060005260206000209081019282156200079b57916020028201828111156200079b5782518255916020019190600101906200077e565b6200086791905b80821115620007a9576000815560010162000851565b90565b6200086791905b80821115620007a957600062000888828262000892565b5060010162000871565b50805460018160011615610100020316600290046000825580601f10620008ba5750620008da565b601f016020900490600052602060002090810190620008da91906200084a565b50565b6000620008eb83836200096c565b9392505050565b6000620008ff8262000bb3565b6200090b818562000bb7565b9350836020820285016200091f8562000bad565b8060005b858110156200095f57848403895281516200093f8582620008dd565b94506200094c8362000bad565b60209a909a019992505060010162000923565b5091979650505050505050565b6000620009798262000bb3565b62000985818562000bb7565b93506200099781856020860162000bc5565b620009a28162000bf8565b9093019392505050565b6000620009b98262000bb3565b620009c5818562000bc0565b9350620009d781856020860162000bc5565b9290920192915050565b6000620009f060188362000bb7565b7f4d616e7566616374757265722069732072657175697265640000000000000000815260200192915050565b600062000a2b60188362000bb7565b7f50726f64756374206e616d652069732072657175697265640000000000000000815260200192915050565b600062000a66601f8362000bb7565b7f50726f64756374206465736372697074696f6e20697320726571756972656400815260200192915050565b600062000aa160118362000bb7565b7010985d18da081a5cc81c995c5d5a5c9959607a1b815260200192915050565b62000acc8162000867565b82525050565b6000620008eb8284620009ac565b60c0808252810162000af381896200096c565b905062000b04602083018862000ac1565b818103604083015262000b1881876200096c565b9050818103606083015262000b2e81866200096c565b905062000b3f608083018562000ac1565b81810360a083015262000b538184620008f2565b98975050505050505050565b6020808252810162000b7181620009e1565b92915050565b6020808252810162000b718162000a1c565b6020808252810162000b718162000a57565b6020808252810162000b718162000a92565b60200190565b5190565b90815260200190565b919050565b60005b8381101562000be257818101518382015260200162000bc8565b8381111562000bf2576000848401525b50505050565b601f01601f191690565b611de48062000c126000396000f3fe608060405234801561001057600080fd5b506004361061007d5760003560e01c80638cd1bb201161005b5780638cd1bb20146100e9578063b9db15b4146100fc578063bd8a8bb81461011c578063e0f6ef871461012f5761007d565b80632df0788f14610082578063718d1532146100ab5780637acc0b20146100c0575b600080fd5b61009561009036600461151c565b610144565b6040516100a29190611a9a565b60405180910390f35b6100be6100b936600461157c565b61015f565b005b6100d36100ce36600461151c565b61033d565b6040516100a29a99989796959493929190611bcd565b6100be6100f7366004611542565b6106d6565b61010f61010a36600461151c565b61073f565b6040516100a29190611bae565b6100be61012a3660046113a1565b610d6a565b6101376110b9565b6040516100a29190611bbf565b6001602052600090815260409020546001600160a01b031681565b6000868152602081905260409020600b0154600160a01b900460ff166101a05760405162461bcd60e51b815260040161019790611b7e565b60405180910390fd5b600086815260208181526040822060040180546001810180835591845292829020885191936101d593910191908901906110bf565b5050600086815260208190526040902042600390910155815115610218576000868152602081815260409091208351610216926009909201918501906110bf565b505b80511561024457600086815260208181526040909120825161024292600a909201918401906110bf565b505b831561026d57600086815260208181526040822060060180546001810182559083529120018490555b60005b83518110156102d45760008088815260200190815260200160002060070184828151811061029a57fe5b60209081029190910181015182546001810180855560009485529383902082516102ca94919092019201906110bf565b5050600101610270565b506000868152600160205260409081902080546001600160a01b03191633908117909155905187917fe31462fe8e56a5b6d08f96766f713eaf372fd39fa9e60fcac931f9fc092a73af9161032d91899142918a91611b1b565b60405180910390a2505050505050565b600060208181529181526040908190208054600180830180548551600293821615610100026000190190911692909204601f81018790048702830187019095528482529194929390928301828280156103d75780601f106103ac576101008083540402835291602001916103d7565b820191906000526020600020905b8154815290600101906020018083116103ba57829003601f168201915b50505060028085018054604080516020601f60001961010060018716150201909416959095049283018590048502810185019091528181529596959450909250908301828280156104695780601f1061043e57610100808354040283529160200191610469565b820191906000526020600020905b81548152906001019060200180831161044c57829003601f168201915b50505050600383015460058401805460408051602060026001851615610100026000190190941693909304601f810184900484028201840190925281815295969395939450908301828280156105005780601f106104d557610100808354040283529160200191610500565b820191906000526020600020905b8154815290600101906020018083116104e357829003601f168201915b5050505060088301805460408051602060026001851615610100026000190190941693909304601f81018490048402820184019092528181529495949350908301828280156105905780601f1061056557610100808354040283529160200191610590565b820191906000526020600020905b81548152906001019060200180831161057357829003601f168201915b5050505060098301805460408051602060026001851615610100026000190190941693909304601f81018490048402820184019092528181529495949350908301828280156106205780601f106105f557610100808354040283529160200191610620565b820191906000526020600020905b81548152906001019060200180831161060357829003601f168201915b50505050600a8301805460408051602060026001851615610100026000190190941693909304601f81018490048402820184019092528181529495949350908301828280156106b05780601f10610685576101008083540402835291602001916106b0565b820191906000526020600020905b81548152906001019060200180831161069357829003601f168201915b505050600b90930154919250506001600160a01b0381169060ff600160a01b909104168a565b6000828152602081905260409020600b0154600160a01b900460ff1661070e5760405162461bcd60e51b815260040161019790611b7e565b600091825260208290526040909120600b0180546001600160a01b0319166001600160a01b03909216919091179055565b61074761113d565b6000828152602081905260409020600b0154600160a01b900460ff1661077f5760405162461bcd60e51b815260040161019790611b7e565b600080838152602001908152602001600020604051806101a001604052908160008201548152602001600182018054600181600116156101000203166002900480601f0160208091040260200160405190810160405280929190818152602001828054600181600116156101000203166002900480156108405780601f1061081557610100808354040283529160200191610840565b820191906000526020600020905b81548152906001019060200180831161082357829003601f168201915b5050509183525050600282810180546040805160206001841615610100026000190190931694909404601f810183900483028501830190915280845293810193908301828280156108d25780601f106108a7576101008083540402835291602001916108d2565b820191906000526020600020905b8154815290600101906020018083116108b557829003601f168201915b505050505081526020016003820154815260200160048201805480602002602001604051908101604052809291908181526020016000905b828210156109b55760008481526020908190208301805460408051601f60026000196101006001871615020190941693909304928301859004850281018501909152818152928301828280156109a15780601f10610976576101008083540402835291602001916109a1565b820191906000526020600020905b81548152906001019060200180831161098457829003601f168201915b50505050508152602001906001019061090a565b5050509082525060058201805460408051602060026001851615610100026000190190941693909304601f8101849004840282018401909252818152938201939291830182828015610a485780601f10610a1d57610100808354040283529160200191610a48565b820191906000526020600020905b815481529060010190602001808311610a2b57829003601f168201915b5050505050815260200160068201805480602002602001604051908101604052809291908181526020018280548015610aa057602002820191906000526020600020905b815481526020019060010190808311610a8c575b5050505050815260200160078201805480602002602001604051908101604052809291908181526020016000905b82821015610b795760008481526020908190208301805460408051601f6002600019610100600187161502019094169390930492830185900485028101850190915281815292830182828015610b655780601f10610b3a57610100808354040283529160200191610b65565b820191906000526020600020905b815481529060010190602001808311610b4857829003601f168201915b505050505081526020019060010190610ace565b5050509082525060088201805460408051602060026001851615610100026000190190941693909304601f8101849004840282018401909252818152938201939291830182828015610c0c5780601f10610be157610100808354040283529160200191610c0c565b820191906000526020600020905b815481529060010190602001808311610bef57829003601f168201915b505050918352505060098201805460408051602060026001851615610100026000190190941693909304601f8101849004840282018401909252818152938201939291830182828015610ca05780601f10610c7557610100808354040283529160200191610ca0565b820191906000526020600020905b815481529060010190602001808311610c8357829003601f168201915b5050509183525050600a8201805460408051602060026001851615610100026000190190941693909304601f8101849004840282018401909252818152938201939291830182828015610d345780601f10610d0957610100808354040283529160200191610d34565b820191906000526020600020905b815481529060010190602001808311610d1757829003601f168201915b5050509183525050600b91909101546001600160a01b0381166020830152600160a01b900460ff16151560409091015292915050565b6000895111610d8b5760405162461bcd60e51b815260040161019790611b6e565b6000835111610dac5760405162461bcd60e51b815260040161019790611b5e565b6000885111610dcd5760405162461bcd60e51b815260040161019790611b8e565b6000865111610dee5760405162461bcd60e51b815260040161019790611b9e565b60028054600190810190915560408051828152808201909152606091816020015b6060815260200190600190039081610e0f5790505090508781600081518110610e3457fe5b60209081029190910101526040805160018082528183019092526060918160200160208202803883390190505090508681600081518110610e7157fe5b602002602001018181525050604051806101a0016040528060025481526020018c81526020018b8152602001428152602001838152602001898152602001828152602001878152602001868152602001858152602001848152602001336001600160a01b03168152602001600115158152506000806002548152602001908152602001600020600082015181600001556020820151816001019080519060200190610f1d9291906110bf565b5060408201518051610f399160028401916020909101906110bf565b506060820151600382015560808201518051610f5f9160048401916020909101906111b0565b5060a08201518051610f7b9160058401916020909101906110bf565b5060c08201518051610f97916006840191602090910190611209565b5060e08201518051610fb39160078401916020909101906111b0565b506101008201518051610fd09160088401916020909101906110bf565b506101208201518051610fed9160098401916020909101906110bf565b50610140820151805161100a91600a8401916020909101906110bf565b50610160820151600b9091018054610180909301511515600160a01b0260ff60a01b196001600160a01b039093166001600160a01b03199094169390931791909116919091179055604051611060908c90611a8e565b60405180910390206002547f905a544ae50b7754b8f8893734927226aab6442d2268c84df2253e01549a91b98c428d8d8d8d6040516110a496959493929190611aa8565b60405180910390a35050505050505050505050565b60025481565b828054600181600116156101000203166002900490600052602060002090601f016020900481019282601f1061110057805160ff191683800117855561112d565b8280016001018555821561112d579182015b8281111561112d578251825591602001919060010190611112565b50611139929150611243565b5090565b604051806101a00160405280600081526020016060815260200160608152602001600081526020016060815260200160608152602001606081526020016060815260200160608152602001606081526020016060815260200160006001600160a01b031681526020016000151581525090565b8280548282559060005260206000209081019282156111fd579160200282015b828111156111fd57825180516111ed9184916020909101906110bf565b50916020019190600101906111d0565b50611139929150611260565b82805482825590600052602060002090810192821561112d579160200282018281111561112d578251825591602001919060010190611112565b61125d91905b808211156111395760008155600101611249565b90565b61125d91905b8082111561113957600061127a8282611283565b50600101611266565b50805460018160011615610100020316600290046000825580601f106112a957506112c7565b601f0160209004906000526020600020908101906112c79190611243565b50565b80356112d581611d84565b92915050565b600082601f8301126112ec57600080fd5b81356112ff6112fa82611cb2565b611c8c565b81815260209384019390925082018360005b8381101561133d57813586016113278882611347565b8452506020928301929190910190600101611311565b5050505092915050565b600082601f83011261135857600080fd5b81356113666112fa82611cd2565b9150808252602083016020830185838301111561138257600080fd5b61138d838284611d3e565b50505092915050565b80356112d581611d98565b60008060008060008060008060006101208a8c0312156113c057600080fd5b89356001600160401b038111156113d657600080fd5b6113e28c828d01611347565b99505060208a01356001600160401b038111156113fe57600080fd5b61140a8c828d01611347565b98505060408a01356001600160401b0381111561142657600080fd5b6114328c828d01611347565b97505060608a01356001600160401b0381111561144e57600080fd5b61145a8c828d01611347565b965050608061146b8c828d01611396565b95505060a08a01356001600160401b0381111561148757600080fd5b6114938c828d016112db565b94505060c08a01356001600160401b038111156114af57600080fd5b6114bb8c828d01611347565b93505060e08a01356001600160401b038111156114d757600080fd5b6114e38c828d01611347565b9250506101008a01356001600160401b0381111561150057600080fd5b61150c8c828d01611347565b9150509295985092959850929598565b60006020828403121561152e57600080fd5b600061153a8484611396565b949350505050565b6000806040838503121561155557600080fd5b60006115618585611396565b9250506020611572858286016112ca565b9150509250929050565b60008060008060008060c0878903121561159557600080fd5b60006115a18989611396565b96505060208701356001600160401b038111156115bd57600080fd5b6115c989828a01611347565b95505060406115da89828a01611396565b94505060608701356001600160401b038111156115f657600080fd5b61160289828a016112db565b93505060808701356001600160401b0381111561161e57600080fd5b61162a89828a01611347565b92505060a08701356001600160401b0381111561164657600080fd5b61165289828a01611347565b9150509295509295509295565b600061166b83836117cf565b9392505050565b600061167e8383611a85565b505060200190565b61168f81611d2d565b82525050565b61168f81611d11565b60006116a982611cff565b6116b38185611d03565b9350836020820285016116c585611cf9565b8060005b858110156116ff57848403895281516116e2858261165f565b94506116ed83611cf9565b60209a909a01999250506001016116c9565b5091979650505050505050565b600061171782611cff565b6117218185611d03565b93508360208202850161173385611cf9565b8060005b858110156116ff5784840389528151611750858261165f565b945061175b83611cf9565b60209a909a0199925050600101611737565b600061177882611cff565b6117828185611d03565b935061178d83611cf9565b8060005b838110156117bb5781516117a58882611672565b97506117b083611cf9565b925050600101611791565b509495945050505050565b61168f81611d1c565b60006117da82611cff565b6117e48185611d03565b93506117f4818560208601611d4a565b6117fd81611d7a565b9093019392505050565b600061181282611cff565b61181c8185611d0c565b935061182c818560208601611d4a565b9290920192915050565b6000611843601883611d03565b7f4d616e7566616374757265722069732072657175697265640000000000000000815260200192915050565b600061187c601883611d03565b7f50726f64756374206e616d652069732072657175697265640000000000000000815260200192915050565b60006118b5601183611d03565b70141c9bd91d58dd081b9bdd08199bdd5b99607a1b815260200192915050565b60006118e2601f83611d03565b7f50726f64756374206465736372697074696f6e20697320726571756972656400815260200192915050565b600061191b601183611d03565b7010985d18da081a5cc81c995c5d5a5c9959607a1b815260200192915050565b80516000906101a08401906119508582611a85565b506020830151848203602086015261196882826117cf565b9150506040830151848203604086015261198282826117cf565b91505060608301516119976060860182611a85565b50608083015184820360808601526119af828261170c565b91505060a083015184820360a08601526119c982826117cf565b91505060c083015184820360c08601526119e3828261176d565b91505060e083015184820360e08601526119fd828261170c565b915050610100830151848203610100860152611a1982826117cf565b915050610120830151848203610120860152611a3582826117cf565b915050610140830151848203610140860152611a5182826117cf565b915050610160830151611a68610160860182611695565b50610180830151611a7d6101808601826117c6565b509392505050565b61168f8161125d565b600061166b8284611807565b602081016112d58284611695565b60c08082528101611ab981896117cf565b9050611ac86020830188611a85565b8181036040830152611ada81876117cf565b90508181036060830152611aee81866117cf565b9050611afd6080830185611a85565b81810360a0830152611b0f818461169e565b98975050505050505050565b60808082528101611b2c81876117cf565b9050611b3b6020830186611a85565b611b486040830185611a85565b611b556060830184611686565b95945050505050565b602080825281016112d581611836565b602080825281016112d58161186f565b602080825281016112d5816118a8565b602080825281016112d5816118d5565b602080825281016112d58161190e565b6020808252810161166b818461193b565b602081016112d58284611a85565b6101408101611bdc828d611a85565b8181036020830152611bee818c6117cf565b90508181036040830152611c02818b6117cf565b9050611c11606083018a611a85565b8181036080830152611c2381896117cf565b905081810360a0830152611c3781886117cf565b905081810360c0830152611c4b81876117cf565b905081810360e0830152611c5f81866117cf565b9050611c6f610100830185611695565b611c7d6101208301846117c6565b9b9a5050505050505050505050565b6040518181016001600160401b0381118282101715611caa57600080fd5b604052919050565b60006001600160401b03821115611cc857600080fd5b5060209081020190565b60006001600160401b03821115611ce857600080fd5b506020601f91909101601f19160190565b60200190565b5190565b90815260200190565b919050565b60006112d582611d21565b151590565b6001600160a01b031690565b60006112d58260006112d582611d11565b82818337506000910152565b60005b83811015611d65578181015183820152602001611d4d565b83811115611d74576000848401525b50505050565b601f01601f191690565b611d8d81611d11565b81146112c757600080fd5b611d8d8161125d56fea365627a7a723158200274d3cff14c386d833becec482589a5e77b35eec218943a346eb27ee04c87186c6578706572696d656e74616cf564736f6c63430005100040",
  "source": "// SPDX-License-Identifier: MIT\r\n\r\npragma solidity ^0.5.9;\r\npragma experimental ABIEncoderV2;\r\n\r\ncontract ProductRegistration {\r\n    struct Product {\r\n        uint256 id;\r\n        string productName;\r\n        string productDescription;\r\n        uint256 dateOfRegistration;\r\n        string[] geoLocations;\r\n        string batch;\r\n        uint256[] prices;\r\n        string[] certifications;\r\n        string manufacturer;\r\n        string distributor;\r\n        string retailer;\r\n        address owner;\r\n        bool isRegistered;\r\n    }\r\n\r\n    mapping(uint256 => Product) public products;\r\n    mapping(uint256 => address) public lastUpdatedBy;\r\n    uint256 public productCount = 0;\r\n\r\n    event ProductUpdated(\r\n        uint256 indexed id,\r\n        string geoLocation,\r\n        uint256 dateOfRegistration,\r\n        uint256 price,\r\n        address updatedBy\r\n    );\r\n\r\n    event ProductRegistered(\r\n        uint256 indexed id,\r\n        string indexed productName,\r\n        string productDescription,\r\n        uint256 dateOfRegistration,\r\n        string geoLocation,\r\n        string batch,\r\n        uint256 price,\r\n        string[] certifications\r\n    );\r\n\r\n    constructor() public {\r\n        string[] memory certifications1 = new string[](2);\r\n        certifications1[0] = \"Certification1\";\r\n        certifications1[1] = \"Certification2\";\r\n\r\n        registerProduct(\r\n            \"Product1\",\r\n            \"Product Description 1\",\r\n            \"Location1\",\r\n            \"Batch1\",\r\n            100,\r\n            certifications1,\r\n            \"Manufacturer1\",\r\n            \"Distributor1\",\r\n            \"Retailer1\"\r\n        );\r\n\r\n        string[] memory certifications2 = new string[](2);\r\n        certifications2[0] = \"Certification3\";\r\n        certifications2[1] = \"Certification4\";\r\n\r\n        registerProduct(\r\n            \"Product2\",\r\n            \"Product Description 2\",\r\n            \"Location2\",\r\n            \"Batch2\",\r\n            200,\r\n            certifications2,\r\n            \"Manufacturer2\",\r\n            \"Distributor2\",\r\n            \"Retailer2\"\r\n        );\r\n    }\r\n\r\n    function registerProduct(\r\n        string memory productName,\r\n        string memory productDescription,\r\n        string memory geoLocation,\r\n        string memory batch,\r\n        uint256 price,\r\n        string[] memory certifications,\r\n        string memory manufacturer,\r\n        string memory distributor,\r\n        string memory retailer\r\n    ) public {\r\n        require(bytes(productName).length > 0, \"Product name is required\");\r\n        require(bytes(manufacturer).length > 0, \"Manufacturer is required\");\r\n        require(\r\n            bytes(productDescription).length > 0,\r\n            \"Product description is required\"\r\n        );\r\n        require(bytes(batch).length > 0, \"Batch is required\");\r\n\r\n        productCount++;\r\n\r\n        string[] memory geoLocations = new string[](1);\r\n        geoLocations[0] = geoLocation;\r\n\r\n        uint256[] memory prices = new uint256[](1);\r\n        prices[0] = price;\r\n\r\n        products[productCount] = Product(\r\n            productCount,\r\n            productName,\r\n            productDescription,\r\n            block.timestamp,\r\n            geoLocations,\r\n            batch,\r\n            prices,\r\n            certifications,\r\n            manufacturer,\r\n            distributor,\r\n            retailer,\r\n            msg.sender, // set the owner to be the address from which the contract is called\r\n            true\r\n        );\r\n        emit ProductRegistered(\r\n            productCount,\r\n            productName,\r\n            productDescription,\r\n            block.timestamp,\r\n            geoLocation,\r\n            batch,\r\n            price,\r\n            certifications\r\n        );\r\n    }\r\n\r\n    function updateProduct(\r\n        uint256 id,\r\n        string memory geoLocation,\r\n        uint256 price,\r\n        string[] memory certifications,\r\n        string memory distributor,\r\n        string memory retailer\r\n    ) public {\r\n        require(products[id].isRegistered, \"Product not found\");\r\n\r\n        products[id].geoLocations.push(geoLocation);\r\n        products[id].dateOfRegistration = block.timestamp;\r\n        if (bytes(distributor).length > 0) {\r\n            products[id].distributor = distributor;\r\n        }\r\n        if (bytes(retailer).length > 0) {\r\n            products[id].retailer = retailer;\r\n        }\r\n        if (price > 0) {\r\n            products[id].prices.push(price);\r\n        }\r\n\r\n        // append new certifications\r\n        for (uint i = 0; i < certifications.length; i++) {\r\n            products[id].certifications.push(certifications[i]);\r\n        }\r\n\r\n        lastUpdatedBy[id] = msg.sender;\r\n\r\n        emit ProductUpdated(\r\n            id,\r\n            geoLocation, // It should take the last inserted geoLocation\r\n            block.timestamp,\r\n            price, // It should take the last inserted price\r\n            msg.sender\r\n        );\r\n    }\r\n\r\n    function addOwner(uint256 id, address newOwner) public {\r\n        require(products[id].isRegistered, \"Product not found\");\r\n        products[id].owner = newOwner;\r\n    }\r\n\r\n    function getProduct(uint256 id) public view returns (Product memory) {\r\n        require(products[id].isRegistered, \"Product not found\");\r\n        return products[id];\r\n    }\r\n}\r\n",
  "sourcePath": "C:\\Users\\tdgal\\OneDrive\\Desktop\\Licentacod\\Licenta_WebSite\\ProductTracking\\smart-contracts\\contracts\\ProductRegistration.sol",
  "compiler": {
    "name": "solc",
    "version": "0.5.16+commit.9c3226ce.Emscripten.clang"
  },
  "schemaVersion": "3.4.14",
  "updatedAt": "2023-06-14T16:34:44.239Z",
  "networkType": "ethereum",
  "devdoc": {
    "methods": {}
  },
  "userdoc": {
    "methods": {}
  }
}