{
  "contractName": "ProductRegistration",
  "abi": [
    {
      "inputs": [],
      "payable": false,
      "stateMutability": "nonpayable",
      "type": "constructor"
    },
    {
      "anonymous": false,
      "inputs": [
        {
          "indexed": true,
          "internalType": "uint256",
          "name": "id",
          "type": "uint256"
        },
        {
          "indexed": true,
          "internalType": "string",
          "name": "productName",
          "type": "string"
        },
        {
          "indexed": false,
          "internalType": "string",
          "name": "productDescription",
          "type": "string"
        },
        {
          "indexed": false,
          "internalType": "uint256",
          "name": "dateOfRegistration",
          "type": "uint256"
        },
        {
          "indexed": false,
          "internalType": "string",
          "name": "geoLocation",
          "type": "string"
        },
        {
          "indexed": false,
          "internalType": "string",
          "name": "batch",
          "type": "string"
        },
        {
          "indexed": false,
          "internalType": "uint256",
          "name": "price",
          "type": "uint256"
        },
        {
          "indexed": false,
          "internalType": "string[]",
          "name": "certifications",
          "type": "string[]"
        }
      ],
      "name": "ProductRegistered",
      "type": "event"
    },
    {
      "anonymous": false,
      "inputs": [
        {
          "indexed": true,
          "internalType": "uint256",
          "name": "id",
          "type": "uint256"
        },
        {
          "indexed": false,
          "internalType": "string",
          "name": "geoLocation",
          "type": "string"
        },
        {
          "indexed": false,
          "internalType": "uint256",
          "name": "dateOfRegistration",
          "type": "uint256"
        },
        {
          "indexed": false,
          "internalType": "uint256",
          "name": "price",
          "type": "uint256"
        },
        {
          "indexed": false,
          "internalType": "address",
          "name": "updatedBy",
          "type": "address"
        }
      ],
      "name": "ProductUpdated",
      "type": "event"
    },
    {
      "constant": true,
      "inputs": [
        {
          "internalType": "uint256",
          "name": "",
          "type": "uint256"
        }
      ],
      "name": "lastUpdatedBy",
      "outputs": [
        {
          "internalType": "address",
          "name": "",
          "type": "address"
        }
      ],
      "payable": false,
      "stateMutability": "view",
      "type": "function"
    },
    {
      "constant": true,
      "inputs": [],
      "name": "productCount",
      "outputs": [
        {
          "internalType": "uint256",
          "name": "",
          "type": "uint256"
        }
      ],
      "payable": false,
      "stateMutability": "view",
      "type": "function"
    },
    {
      "constant": true,
      "inputs": [
        {
          "internalType": "uint256",
          "name": "",
          "type": "uint256"
        }
      ],
      "name": "products",
      "outputs": [
        {
          "internalType": "uint256",
          "name": "id",
          "type": "uint256"
        },
        {
          "internalType": "string",
          "name": "productName",
          "type": "string"
        },
        {
          "internalType": "string",
          "name": "productDescription",
          "type": "string"
        },
        {
          "internalType": "uint256",
          "name": "dateOfRegistration",
          "type": "uint256"
        },
        {
          "internalType": "string",
          "name": "geoLocation",
          "type": "string"
        },
        {
          "internalType": "string",
          "name": "batch",
          "type": "string"
        },
        {
          "internalType": "uint256",
          "name": "price",
          "type": "uint256"
        },
        {
          "internalType": "bool",
          "name": "isRegistered",
          "type": "bool"
        }
      ],
      "payable": false,
      "stateMutability": "view",
      "type": "function"
    },
    {
      "constant": false,
      "inputs": [
        {
          "internalType": "string",
          "name": "productName",
          "type": "string"
        },
        {
          "internalType": "string",
          "name": "productDescription",
          "type": "string"
        },
        {
          "internalType": "string",
          "name": "geoLocation",
          "type": "string"
        },
        {
          "internalType": "string",
          "name": "batch",
          "type": "string"
        },
        {
          "internalType": "uint256",
          "name": "price",
          "type": "uint256"
        },
        {
          "internalType": "string[]",
          "name": "certifications",
          "type": "string[]"
        }
      ],
      "name": "registerProduct",
      "outputs": [],
      "payable": false,
      "stateMutability": "nonpayable",
      "type": "function"
    },
    {
      "constant": false,
      "inputs": [
        {
          "internalType": "uint256",
          "name": "id",
          "type": "uint256"
        },
        {
          "internalType": "string",
          "name": "geoLocation",
          "type": "string"
        },
        {
          "internalType": "uint256",
          "name": "price",
          "type": "uint256"
        },
        {
          "internalType": "string[]",
          "name": "certifications",
          "type": "string[]"
        }
      ],
      "name": "updateProduct",
      "outputs": [],
      "payable": false,
      "stateMutability": "nonpayable",
      "type": "function"
    },
    {
      "constant": true,
      "inputs": [
        {
          "internalType": "uint256",
          "name": "id",
          "type": "uint256"
        }
      ],
      "name": "getProduct",
      "outputs": [
        {
          "components": [
            {
              "internalType": "uint256",
              "name": "id",
              "type": "uint256"
            },
            {
              "internalType": "string",
              "name": "productName",
              "type": "string"
            },
            {
              "internalType": "string",
              "name": "productDescription",
              "type": "string"
            },
            {
              "internalType": "uint256",
              "name": "dateOfRegistration",
              "type": "uint256"
            },
            {
              "internalType": "string",
              "name": "geoLocation",
              "type": "string"
            },
            {
              "internalType": "string",
              "name": "batch",
              "type": "string"
            },
            {
              "internalType": "uint256",
              "name": "price",
              "type": "uint256"
            },
            {
              "internalType": "string[]",
              "name": "certifications",
              "type": "string[]"
            },
            {
              "internalType": "bool",
              "name": "isRegistered",
              "type": "bool"
            }
          ],
          "internalType": "struct ProductRegistration.Product",
          "name": "",
          "type": "tuple"
        }
      ],
      "payable": false,
      "stateMutability": "view",
      "type": "function"
    }
  ],
  "bytecode": "0x608060405260006002553480156200001657600080fd5b506040805160028082526060828101909352816020015b60608152602001906001900390816200002d5790505090506040518060400160405280600e81526020016d43657274696669636174696f6e3160901b815250816000815181106200007a57fe5b60200260200101819052506040518060400160405280600e81526020016d21b2b93a34b334b1b0ba34b7b71960911b81525081600181518110620000ba57fe5b6020026020010181905250620001706040518060400160405280600881526020016750726f647563743160c01b8152506040518060400160405280601581526020017f50726f64756374204465736372697074696f6e20310000000000000000000000815250604051806040016040528060098152602001684c6f636174696f6e3160b81b8152506040518060400160405280600681526020016542617463683160d01b815250606486620002d160201b60201c565b6040805160028082526060828101909352816020015b6060815260200190600190039081620001865790505090506040518060400160405280600e81526020016d43657274696669636174696f6e3360901b81525081600081518110620001d357fe5b60200260200101819052506040518060400160405280600e81526020016d10d95c9d1a599a58d85d1a5bdb8d60921b815250816001815181106200021357fe5b6020026020010181905250620002c960405180604001604052806008815260200167283937b23ab1ba1960c11b8152506040518060400160405280601581526020017f50726f64756374204465736372697074696f6e20320000000000000000000000815250604051806040016040528060098152602001682637b1b0ba34b7b71960b91b815250604051806040016040528060068152602001652130ba31b41960d11b81525060c886620002d160201b60201c565b505062000922565b6000865111620002fe5760405162461bcd60e51b8152600401620002f59062000891565b60405180910390fd5b6000855111620003225760405162461bcd60e51b8152600401620002f590620008a9565b6000835111620003465760405162461bcd60e51b8152600401620002f590620008bb565b60028054600190810191829055604080516101208101825283815260208082018b81528284018b9052426060840152608083018a905260a0830189905260c0830188905260e083018790526101008301859052600095865285825292909420815181559151805191949293620003c39390850192910190620004d2565b5060408201518051620003e1916002840191602090910190620004d2565b50606082015160038201556080820151805162000409916004840191602090910190620004d2565b5060a0820151805162000427916005840191602090910190620004d2565b5060c0820151600682015560e082015180516200044f91600784019160209091019062000557565b5061010091909101516008909101805460ff19169115159190911790556040516200047c90879062000804565b60405180910390206002547f905a544ae50b7754b8f8893734927226aab6442d2268c84df2253e01549a91b9874288888888604051620004c29695949392919062000812565b60405180910390a3505050505050565b828054600181600116156101000203166002900490600052602060002090601f016020900481019282601f106200051557805160ff191683800117855562000545565b8280016001018555821562000545579182015b828111156200054557825182559160200191906001019062000528565b5062000553929150620005b7565b5090565b828054828255906000526020600020908101928215620005a9579160200282015b82811115620005a9578251805162000598918491602090910190620004d2565b509160200191906001019062000578565b5062000553929150620005d7565b620005d491905b80821115620005535760008155600101620005be565b90565b620005d491905b8082111562000553576000620005f58282620005ff565b50600101620005de565b50805460018160011615610100020316600290046000825580601f1062000627575062000647565b601f016020900490600052602060002090810190620006479190620005b7565b50565b6000620006588383620006d9565b9392505050565b60006200066c82620008d3565b620006788185620008d7565b9350836020820285016200068c85620008cd565b8060005b85811015620006cc5784840389528151620006ac85826200064a565b9450620006b983620008cd565b60209a909a019992505060010162000690565b5091979650505050505050565b6000620006e682620008d3565b620006f28185620008d7565b935062000704818560208601620008e5565b6200070f8162000918565b9093019392505050565b60006200072682620008d3565b620007328185620008e0565b935062000744818560208601620008e5565b9290920192915050565b60006200075d601883620008d7565b7f50726f64756374206e616d652069732072657175697265640000000000000000815260200192915050565b600062000798601f83620008d7565b7f50726f64756374206465736372697074696f6e20697320726571756972656400815260200192915050565b6000620007d3601183620008d7565b7010985d18da081a5cc81c995c5d5a5c9959607a1b815260200192915050565b620007fe81620005d4565b82525050565b600062000658828462000719565b60c08082528101620008258189620006d9565b9050620008366020830188620007f3565b81810360408301526200084a8187620006d9565b90508181036060830152620008608186620006d9565b9050620008716080830185620007f3565b81810360a08301526200088581846200065f565b98975050505050505050565b60208082528101620008a3816200074e565b92915050565b60208082528101620008a38162000789565b60208082528101620008a381620007c4565b60200190565b5190565b90815260200190565b919050565b60005b8381101562000902578181015183820152602001620008e8565b8381111562000912576000848401525b50505050565b601f01601f191690565b6114f980620009326000396000f3fe608060405234801561001057600080fd5b50600436106100625760003560e01c80632df0788f146100675780637833f1e4146100905780637acc0b20146100a557806399e89ce6146100cc578063b9db15b4146100df578063e0f6ef87146100ff575b600080fd5b61007a610075366004610e15565b610114565b60405161008791906111f1565b60405180910390f35b6100a361009e366004610e3b565b61012f565b005b6100b86100b3366004610e15565b61028b565b604051610087989796959493929190611314565b6100a36100da366004610d17565b6104f8565b6100f26100ed366004610e15565b6106d9565b60405161008791906112f5565b610107610a99565b6040516100879190611306565b6001602052600090815260409020546001600160a01b031681565b60008481526020819052604090206008015460ff166101695760405162461bcd60e51b8152600401610160906112c5565b60405180910390fd5b600084815260208181526040909120845161018c92600490920191860190610a9f565b5060008481526020819052604090204260039091015581156101bd5760008481526020819052604090206006018290555b60005b8151811015610224576000808681526020019081526020016000206007018282815181106101ea57fe5b602090810291909101810151825460018101808555600094855293839020825161021a9491909201920190610a9f565b50506001016101c0565b506000848152600160205260409081902080546001600160a01b03191633908117909155905185917fe31462fe8e56a5b6d08f96766f713eaf372fd39fa9e60fcac931f9fc092a73af9161027d91879142918891611272565b60405180910390a250505050565b600060208181529181526040908190208054600180830180548551600293821615610100026000190190911692909204601f81018790048702830187019095528482529194929390928301828280156103255780601f106102fa57610100808354040283529160200191610325565b820191906000526020600020905b81548152906001019060200180831161030857829003601f168201915b50505060028085018054604080516020601f60001961010060018716150201909416959095049283018590048502810185019091528181529596959450909250908301828280156103b75780601f1061038c576101008083540402835291602001916103b7565b820191906000526020600020905b81548152906001019060200180831161039a57829003601f168201915b50505050600383015460048401805460408051602060026001851615610100026000190190941693909304601f8101849004840282018401909252818152959693959394509083018282801561044e5780601f106104235761010080835404028352916020019161044e565b820191906000526020600020905b81548152906001019060200180831161043157829003601f168201915b5050505060058301805460408051602060026001851615610100026000190190941693909304601f81018490048402820184019092528181529495949350908301828280156104de5780601f106104b3576101008083540402835291602001916104de565b820191906000526020600020905b8154815290600101906020018083116104c157829003601f168201915b50505050600683015460089093015491929160ff16905088565b60008651116105195760405162461bcd60e51b8152600401610160906112b5565b600085511161053a5760405162461bcd60e51b8152600401610160906112d5565b600083511161055b5760405162461bcd60e51b8152600401610160906112e5565b60028054600190810191829055604080516101208101825283815260208082018b81528284018b9052426060840152608083018a905260a0830189905260c0830188905260e0830187905261010083018590526000958652858252929094208151815591518051919492936105d69390850192910190610a9f565b50604082015180516105f2916002840191602090910190610a9f565b506060820151600382015560808201518051610618916004840191602090910190610a9f565b5060a08201518051610634916005840191602090910190610a9f565b5060c0820151600682015560e0820151805161065a916007840191602090910190610b1d565b5061010091909101516008909101805460ff19169115159190911790556040516106859087906111e5565b60405180910390206002547f905a544ae50b7754b8f8893734927226aab6442d2268c84df2253e01549a91b98742888888886040516106c9969594939291906111ff565b60405180910390a3505050505050565b6106e1610b76565b60008281526020819052604090206008015460ff166107125760405162461bcd60e51b8152600401610160906112c5565b6000808381526020019081526020016000206040518061012001604052908160008201548152602001600182018054600181600116156101000203166002900480601f0160208091040260200160405190810160405280929190818152602001828054600181600116156101000203166002900480156107d35780601f106107a8576101008083540402835291602001916107d3565b820191906000526020600020905b8154815290600101906020018083116107b657829003601f168201915b5050509183525050600282810180546040805160206001841615610100026000190190931694909404601f810183900483028501830190915280845293810193908301828280156108655780601f1061083a57610100808354040283529160200191610865565b820191906000526020600020905b81548152906001019060200180831161084857829003601f168201915b5050509183525050600382015460208083019190915260048301805460408051601f600260001961010060018716150201909416939093049283018590048502810185018252828152940193928301828280156109035780601f106108d857610100808354040283529160200191610903565b820191906000526020600020905b8154815290600101906020018083116108e657829003601f168201915b505050918352505060058201805460408051602060026001851615610100026000190190941693909304601f81018490048402820184019092528181529382019392918301828280156109975780601f1061096c57610100808354040283529160200191610997565b820191906000526020600020905b81548152906001019060200180831161097a57829003601f168201915b505050505081526020016006820154815260200160078201805480602002602001604051908101604052809291908181526020016000905b82821015610a7a5760008481526020908190208301805460408051601f6002600019610100600187161502019094169390930492830185900485028101850190915281815292830182828015610a665780601f10610a3b57610100808354040283529160200191610a66565b820191906000526020600020905b815481529060010190602001808311610a4957829003601f168201915b5050505050815260200190600101906109cf565b505050908252506008919091015460ff16151560209091015292915050565b60025481565b828054600181600116156101000203166002900490600052602060002090601f016020900481019282601f10610ae057805160ff1916838001178555610b0d565b82800160010185558215610b0d579182015b82811115610b0d578251825591602001919060010190610af2565b50610b19929150610bc4565b5090565b828054828255906000526020600020908101928215610b6a579160200282015b82811115610b6a5782518051610b5a918491602090910190610a9f565b5091602001919060010190610b3d565b50610b19929150610be1565b60405180610120016040528060008152602001606081526020016060815260200160008152602001606081526020016060815260200160008152602001606081526020016000151581525090565b610bde91905b80821115610b195760008155600101610bca565b90565b610bde91905b80821115610b19576000610bfb8282610c04565b50600101610be7565b50805460018160011615610100020316600290046000825580601f10610c2a5750610c48565b601f016020900490600052602060002090810190610c489190610bc4565b50565b600082601f830112610c5c57600080fd5b8135610c6f610c6a826113ce565b6113a7565b81815260209384019390925082018360005b83811015610cad5781358601610c978882610cb7565b8452506020928301929190910190600101610c81565b5050505092915050565b600082601f830112610cc857600080fd5b8135610cd6610c6a826113ef565b91508082526020830160208301858383011115610cf257600080fd5b610cfd83828461145c565b50505092915050565b8035610d11816114a2565b92915050565b60008060008060008060c08789031215610d3057600080fd5b863567ffffffffffffffff811115610d4757600080fd5b610d5389828a01610cb7565b965050602087013567ffffffffffffffff811115610d7057600080fd5b610d7c89828a01610cb7565b955050604087013567ffffffffffffffff811115610d9957600080fd5b610da589828a01610cb7565b945050606087013567ffffffffffffffff811115610dc257600080fd5b610dce89828a01610cb7565b9350506080610ddf89828a01610d06565b92505060a087013567ffffffffffffffff811115610dfc57600080fd5b610e0889828a01610c4b565b9150509295509295509295565b600060208284031215610e2757600080fd5b6000610e338484610d06565b949350505050565b60008060008060808587031215610e5157600080fd5b6000610e5d8787610d06565b945050602085013567ffffffffffffffff811115610e7a57600080fd5b610e8687828801610cb7565b9350506040610e9787828801610d06565b925050606085013567ffffffffffffffff811115610eb457600080fd5b610ec087828801610c4b565b91505092959194509250565b6000610ed88383610fcf565b9392505050565b610ee88161144b565b82525050565b610ee88161142f565b6000610f028261141d565b610f0c8185611421565b935083602082028501610f1e85611417565b8060005b85811015610f585784840389528151610f3b8582610ecc565b9450610f4683611417565b60209a909a0199925050600101610f22565b5091979650505050505050565b6000610f708261141d565b610f7a8185611421565b935083602082028501610f8c85611417565b8060005b85811015610f585784840389528151610fa98582610ecc565b9450610fb483611417565b60209a909a0199925050600101610f90565b610ee88161143a565b6000610fda8261141d565b610fe48185611421565b9350610ff4818560208601611468565b610ffd81611498565b9093019392505050565b60006110128261141d565b61101c818561142a565b935061102c818560208601611468565b9290920192915050565b6000611043601883611421565b7f50726f64756374206e616d652069732072657175697265640000000000000000815260200192915050565b600061107c601183611421565b70141c9bd91d58dd081b9bdd08199bdd5b99607a1b815260200192915050565b60006110a9601f83611421565b7f50726f64756374206465736372697074696f6e20697320726571756972656400815260200192915050565b60006110e2601183611421565b7010985d18da081a5cc81c995c5d5a5c9959607a1b815260200192915050565b805160009061012084019061111785826111dc565b506020830151848203602086015261112f8282610fcf565b915050604083015184820360408601526111498282610fcf565b915050606083015161115e60608601826111dc565b50608083015184820360808601526111768282610fcf565b91505060a083015184820360a08601526111908282610fcf565b91505060c08301516111a560c08601826111dc565b5060e083015184820360e08601526111bd8282610f65565b9150506101008301516111d4610100860182610fc6565b509392505050565b610ee881610bde565b6000610ed88284611007565b60208101610d118284610eee565b60c080825281016112108189610fcf565b905061121f60208301886111dc565b81810360408301526112318187610fcf565b905081810360608301526112458186610fcf565b905061125460808301856111dc565b81810360a08301526112668184610ef7565b98975050505050505050565b608080825281016112838187610fcf565b905061129260208301866111dc565b61129f60408301856111dc565b6112ac6060830184610edf565b95945050505050565b60208082528101610d1181611036565b60208082528101610d118161106f565b60208082528101610d118161109c565b60208082528101610d11816110d5565b60208082528101610ed88184611102565b60208101610d1182846111dc565b6101008101611323828b6111dc565b8181036020830152611335818a610fcf565b905081810360408301526113498189610fcf565b905061135860608301886111dc565b818103608083015261136a8187610fcf565b905081810360a083015261137e8186610fcf565b905061138d60c08301856111dc565b61139a60e0830184610fc6565b9998505050505050505050565b60405181810167ffffffffffffffff811182821017156113c657600080fd5b604052919050565b600067ffffffffffffffff8211156113e557600080fd5b5060209081020190565b600067ffffffffffffffff82111561140657600080fd5b506020601f91909101601f19160190565b60200190565b5190565b90815260200190565b919050565b6000610d118261143f565b151590565b6001600160a01b031690565b6000610d11826000610d118261142f565b82818337506000910152565b60005b8381101561148357818101518382015260200161146b565b83811115611492576000848401525b50505050565b601f01601f191690565b6114ab81610bde565b8114610c4857600080fdfea365627a7a72315820905657ca60734c8675ed6e5a8f8d4e9d02eff5f51fa5f564fa7c3a840ec932736c6578706572696d656e74616cf564736f6c63430005100040",
  "source": "// SPDX-License-Identifier: MIT\r\n\r\npragma solidity ^0.5.9;\r\npragma experimental ABIEncoderV2;\r\n\r\ncontract ProductRegistration {\r\n    struct Product {\r\n        uint256 id;\r\n        string productName;\r\n        string productDescription;\r\n        uint256 dateOfRegistration;\r\n        string geoLocation;\r\n        string batch;\r\n        uint256 price;\r\n        string[] certifications;\r\n        bool isRegistered;\r\n    }\r\n\r\n    mapping(uint256 => Product) public products;\r\n    mapping(uint256 => address) public lastUpdatedBy;\r\n    uint256 public productCount = 0;\r\n\r\n    event ProductUpdated(\r\n        uint256 indexed id,\r\n        string geoLocation,\r\n        uint256 dateOfRegistration,\r\n        uint256 price,\r\n        address updatedBy\r\n    );\r\n\r\n    event ProductRegistered(\r\n        uint256 indexed id,\r\n        string indexed productName,\r\n        string productDescription,\r\n        uint256 dateOfRegistration,\r\n        string geoLocation,\r\n        string batch,\r\n        uint256 price,\r\n        string[] certifications\r\n    );\r\n\r\n    constructor() public {\r\n        string[] memory certifications1 = new string[](2);\r\n        certifications1[0] = \"Certification1\";\r\n        certifications1[1] = \"Certification2\";\r\n\r\n        registerProduct(\r\n            \"Product1\",\r\n            \"Product Description 1\",\r\n            \"Location1\",\r\n            \"Batch1\",\r\n            100,\r\n            certifications1\r\n        );\r\n\r\n        string[] memory certifications2 = new string[](2);\r\n        certifications2[0] = \"Certification3\";\r\n        certifications2[1] = \"Certification4\";\r\n\r\n        registerProduct(\r\n            \"Product2\",\r\n            \"Product Description 2\",\r\n            \"Location2\",\r\n            \"Batch2\",\r\n            200,\r\n            certifications2\r\n        );\r\n    }\r\n\r\n    function registerProduct(\r\n        string memory productName,\r\n        string memory productDescription,\r\n        string memory geoLocation,\r\n        string memory batch,\r\n        uint256 price,\r\n        string[] memory certifications\r\n    ) public {\r\n        require(bytes(productName).length > 0, \"Product name is required\");\r\n        require(\r\n            bytes(productDescription).length > 0,\r\n            \"Product description is required\"\r\n        );\r\n        require(bytes(batch).length > 0, \"Batch is required\");\r\n\r\n        productCount++;\r\n        products[productCount] = Product(\r\n            productCount,\r\n            productName,\r\n            productDescription,\r\n            block.timestamp,\r\n            geoLocation,\r\n            batch,\r\n            price,\r\n            certifications,\r\n            true\r\n        );\r\n        emit ProductRegistered(\r\n            productCount,\r\n            productName,\r\n            productDescription,\r\n            block.timestamp,\r\n            geoLocation,\r\n            batch,\r\n            price,\r\n            certifications\r\n        );\r\n    }\r\n\r\n    function updateProduct(\r\n        uint256 id,\r\n        string memory geoLocation,\r\n        uint256 price,\r\n        string[] memory certifications\r\n    ) public {\r\n        require(products[id].isRegistered, \"Product not found\");\r\n\r\n        products[id].geoLocation = geoLocation;\r\n        products[id].dateOfRegistration = block.timestamp;\r\n        if (price > 0) {\r\n            products[id].price = price;\r\n        }\r\n\r\n        // append new certifications\r\n        for (uint i = 0; i < certifications.length; i++) {\r\n            products[id].certifications.push(certifications[i]);\r\n        }\r\n\r\n        lastUpdatedBy[id] = msg.sender;\r\n\r\n        emit ProductUpdated(\r\n            id,\r\n            geoLocation,\r\n            block.timestamp,\r\n            price,\r\n            msg.sender\r\n        );\r\n    }\r\n\r\n    function getProduct(uint256 id) public view returns (Product memory) {\r\n        require(products[id].isRegistered, \"Product not found\");\r\n        return products[id];\r\n    }\r\n}\r\n",
  "sourcePath": "C:\\Users\\tdgal\\OneDrive\\Desktop\\Licentacod\\Licenta_WebSite\\ProductTracking\\smart-contracts\\contracts\\ProductRegistration.sol",
  "compiler": {
    "name": "solc",
    "version": "0.5.16+commit.9c3226ce.Emscripten.clang"
  },
  "schemaVersion": "3.4.14",
  "updatedAt": "2023-06-11T08:08:03.817Z",
  "networkType": "ethereum",
  "devdoc": {
    "methods": {}
  },
  "userdoc": {
    "methods": {}
  }
}