{
  "contractName": "ProductRegistration",
  "abi": [
    {
      "inputs": [],
      "payable": false,
      "stateMutability": "nonpayable",
      "type": "constructor"
    },
    {
      "anonymous": false,
      "inputs": [
        {
          "indexed": true,
          "internalType": "uint256",
          "name": "id",
          "type": "uint256"
        },
        {
          "indexed": false,
          "internalType": "string",
          "name": "productName",
          "type": "string"
        },
        {
          "indexed": false,
          "internalType": "uint256",
          "name": "dateOfRegistration",
          "type": "uint256"
        }
      ],
      "name": "ProductRegistered",
      "type": "event"
    },
    {
      "anonymous": false,
      "inputs": [
        {
          "indexed": true,
          "internalType": "uint256",
          "name": "id",
          "type": "uint256"
        },
        {
          "indexed": false,
          "internalType": "string",
          "name": "locationOfUpdate",
          "type": "string"
        },
        {
          "indexed": false,
          "internalType": "uint256",
          "name": "price",
          "type": "uint256"
        },
        {
          "indexed": false,
          "internalType": "string",
          "name": "certification",
          "type": "string"
        },
        {
          "indexed": false,
          "internalType": "address",
          "name": "updatedBy",
          "type": "address"
        },
        {
          "indexed": false,
          "internalType": "uint256",
          "name": "dateOfUpdate",
          "type": "uint256"
        }
      ],
      "name": "ProductUpdated",
      "type": "event"
    },
    {
      "constant": true,
      "inputs": [
        {
          "internalType": "uint256",
          "name": "",
          "type": "uint256"
        }
      ],
      "name": "lastUpdatedBy",
      "outputs": [
        {
          "internalType": "address",
          "name": "",
          "type": "address"
        }
      ],
      "payable": false,
      "stateMutability": "view",
      "type": "function"
    },
    {
      "constant": true,
      "inputs": [],
      "name": "productCount",
      "outputs": [
        {
          "internalType": "uint256",
          "name": "",
          "type": "uint256"
        }
      ],
      "payable": false,
      "stateMutability": "view",
      "type": "function"
    },
    {
      "constant": true,
      "inputs": [
        {
          "internalType": "uint256",
          "name": "",
          "type": "uint256"
        }
      ],
      "name": "products",
      "outputs": [
        {
          "internalType": "uint256",
          "name": "id",
          "type": "uint256"
        },
        {
          "internalType": "string",
          "name": "productName",
          "type": "string"
        },
        {
          "internalType": "string",
          "name": "productDescription",
          "type": "string"
        },
        {
          "internalType": "uint256",
          "name": "dateOfRegistration",
          "type": "uint256"
        },
        {
          "internalType": "uint256",
          "name": "dateOfUpdate",
          "type": "uint256"
        },
        {
          "internalType": "string",
          "name": "batch",
          "type": "string"
        },
        {
          "internalType": "string",
          "name": "manufacturer",
          "type": "string"
        },
        {
          "internalType": "string",
          "name": "distributor",
          "type": "string"
        },
        {
          "internalType": "string",
          "name": "retailer",
          "type": "string"
        },
        {
          "internalType": "bool",
          "name": "isRegistered",
          "type": "bool"
        }
      ],
      "payable": false,
      "stateMutability": "view",
      "type": "function"
    },
    {
      "constant": false,
      "inputs": [
        {
          "internalType": "string",
          "name": "productName",
          "type": "string"
        },
        {
          "internalType": "string",
          "name": "productDescription",
          "type": "string"
        },
        {
          "internalType": "string",
          "name": "locationOfRegistration",
          "type": "string"
        },
        {
          "internalType": "string",
          "name": "batch",
          "type": "string"
        },
        {
          "internalType": "uint256",
          "name": "price",
          "type": "uint256"
        },
        {
          "internalType": "string",
          "name": "certification",
          "type": "string"
        },
        {
          "internalType": "string",
          "name": "manufacturer",
          "type": "string"
        },
        {
          "internalType": "string",
          "name": "distributor",
          "type": "string"
        },
        {
          "internalType": "string",
          "name": "retailer",
          "type": "string"
        }
      ],
      "name": "registerProduct",
      "outputs": [],
      "payable": false,
      "stateMutability": "nonpayable",
      "type": "function"
    },
    {
      "constant": false,
      "inputs": [
        {
          "internalType": "uint256",
          "name": "id",
          "type": "uint256"
        },
        {
          "internalType": "string",
          "name": "locationOfUpdate",
          "type": "string"
        },
        {
          "internalType": "uint256",
          "name": "price",
          "type": "uint256"
        },
        {
          "internalType": "string",
          "name": "certification",
          "type": "string"
        },
        {
          "internalType": "string",
          "name": "distributor",
          "type": "string"
        },
        {
          "internalType": "string",
          "name": "retailer",
          "type": "string"
        }
      ],
      "name": "updateProduct",
      "outputs": [],
      "payable": false,
      "stateMutability": "nonpayable",
      "type": "function"
    },
    {
      "constant": false,
      "inputs": [
        {
          "internalType": "uint256",
          "name": "id",
          "type": "uint256"
        }
      ],
      "name": "addOwner",
      "outputs": [],
      "payable": false,
      "stateMutability": "nonpayable",
      "type": "function"
    },
    {
      "constant": true,
      "inputs": [
        {
          "internalType": "uint256",
          "name": "id",
          "type": "uint256"
        }
      ],
      "name": "getProduct",
      "outputs": [
        {
          "components": [
            {
              "internalType": "uint256",
              "name": "id",
              "type": "uint256"
            },
            {
              "internalType": "string",
              "name": "productName",
              "type": "string"
            },
            {
              "internalType": "string",
              "name": "productDescription",
              "type": "string"
            },
            {
              "internalType": "uint256",
              "name": "dateOfRegistration",
              "type": "uint256"
            },
            {
              "internalType": "string[]",
              "name": "locationOfRegistration",
              "type": "string[]"
            },
            {
              "internalType": "string[]",
              "name": "locationsOfUpdates",
              "type": "string[]"
            },
            {
              "internalType": "uint256",
              "name": "dateOfUpdate",
              "type": "uint256"
            },
            {
              "internalType": "string",
              "name": "batch",
              "type": "string"
            },
            {
              "internalType": "uint256[]",
              "name": "prices",
              "type": "uint256[]"
            },
            {
              "internalType": "string[]",
              "name": "certifications",
              "type": "string[]"
            },
            {
              "internalType": "string",
              "name": "manufacturer",
              "type": "string"
            },
            {
              "internalType": "string",
              "name": "distributor",
              "type": "string"
            },
            {
              "internalType": "string",
              "name": "retailer",
              "type": "string"
            },
            {
              "internalType": "address[]",
              "name": "owners",
              "type": "address[]"
            },
            {
              "internalType": "bool",
              "name": "isRegistered",
              "type": "bool"
            }
          ],
          "internalType": "struct ProductRegistration.Product",
          "name": "",
          "type": "tuple"
        }
      ],
      "payable": false,
      "stateMutability": "view",
      "type": "function"
    }
  ],
  "bytecode": "0x608060405260006002553480156200001657600080fd5b506200015f604051806040016040528060128152602001712334b939ba10383937b23ab1ba1032bb32b960711b8152506040518060400160405280601581526020017f50726f64756374204465736372697074696f6e20310000000000000000000000815250604051806040016040528060098152602001684c6f636174696f6e3160b81b8152506040518060400160405280600681526020016542617463683160d01b81525060646040518060400160405280600e81526020016d63657274696669636174696f6e3160901b8152506040518060400160405280600d81526020016c4d616e7566616374757265723160981b8152506040518060400160405280600c81526020016b4469737472696275746f723160a01b8152506040518060400160405280600981526020016852657461696c65723160b81b8152506200016560201b60201c565b62000b2b565b6000895111620001925760405162461bcd60e51b8152600401620001899062000a81565b60405180910390fd5b6000885111620001b65760405162461bcd60e51b8152600401620001899062000abd565b6000875111620001da5760405162461bcd60e51b8152600401620001899062000aab565b600083511180620001ec575060008251115b6200020b5760405162461bcd60e51b8152600401620001899062000a99565b60008651116200022f5760405162461bcd60e51b8152600401620001899062000acf565b6000620002446001600160e01b036200061216565b6002805460019081019182905591925014156200025f575060015b604080516001808252818301909252606091816020015b60608152602001906001900390816200027657905050905088816000815181106200029d57fe5b60209081029190910101526040805160018082528183019092526060918160200160208202803883390190505090508781600081518110620002db57fe5b6020908102919091010152604080516001808252818301909252606091816020015b6060815260200190600190039081620002fd57905050905087816000815181106200032457fe5b602090810291909101015260408051600180825281830190925260609181602001602082028038833901905050905033816000815181106200036257fe5b60200260200101906001600160a01b031690816001600160a01b031681525050604051806101e001604052808681526020018f81526020018e81526020014281526020018581526020016000604051908082528060200260200182016040528015620003e357816020015b6060815260200190600190039081620003cd5790505b508152602001600081526020018c8152602001848152602001838152602001898152602001888152602001878152602001828152602001600115158152506000808781526020019081526020016000206000820151816000015560208201518160010190805190602001906200045b92919062000659565b50604082015180516200047991600284019160209091019062000659565b506060820151600382015560808201518051620004a1916004840191602090910190620006de565b5060a08201518051620004bf916005840191602090910190620006de565b5060c0820151600682015560e08201518051620004e791600784019160209091019062000659565b506101008201518051620005069160088401916020909101906200073e565b50610120820151805162000525916009840191602090910190620006de565b5061014082015180516200054491600a84019160209091019062000659565b5061016082015180516200056391600b84019160209091019062000659565b5061018082015180516200058291600c84019160209091019062000659565b506101a08201518051620005a191600d8401916020909101906200077b565b506101c082015181600e0160006101000a81548160ff021916908315150217905550905050847f57030c25126c4f4705ce7d82daf497a7005ee8015063d65c5c89481076f138648f42604051620005fa92919062000a56565b60405180910390a25050505050505050505050505050565b60008064e8d4a5100042446040516020016200063092919062000a2c565b6040516020818303038152906040528051906020012060001c816200065157fe5b069150505b90565b828054600181600116156101000203166002900490600052602060002090601f016020900481019282601f106200069c57805160ff1916838001178555620006cc565b82800160010185558215620006cc579182015b82811115620006cc578251825591602001919060010190620006af565b50620006da929150620007e1565b5090565b82805482825590600052602060002090810192821562000730579160200282015b828111156200073057825180516200071f91849160209091019062000659565b5091602001919060010190620006ff565b50620006da929150620007fe565b828054828255906000526020600020908101928215620006cc5791602002820182811115620006cc578251825591602001919060010190620006af565b828054828255906000526020600020908101928215620007d3579160200282015b82811115620007d357825182546001600160a01b0319166001600160a01b039091161782556020909201916001909101906200079c565b50620006da92915062000826565b6200065691905b80821115620006da5760008155600101620007e8565b6200065691905b80821115620006da5760006200081c82826200084d565b5060010162000805565b6200065691905b80821115620006da5780546001600160a01b03191681556001016200082d565b50805460018160011615610100020316600290046000825580601f1062000875575062000895565b601f016020900490600052602060002090810190620008959190620007e1565b50565b6000620008a58262000ae1565b620008b1818562000ae5565b9350620008c381856020860162000aee565b620008ce8162000b21565b9093019392505050565b6000620008e760188362000ae5565b7f50726f64756374206e616d652069732072657175697265640000000000000000815260200192915050565b600062000922602a8362000ae5565b7f50726f7669646572206e616d6520697320726571756972656420666f7220726581526933b4b9ba3930ba34b7b760b11b602082015260400192915050565b60006200097060148362000ae5565b7f4c6f636174696f6e206973207265717569726564000000000000000000000000815260200192915050565b6000620009ab601f8362000ae5565b7f50726f64756374206465736372697074696f6e20697320726571756972656400815260200192915050565b6000620009e660118362000ae5565b7010985d18da081a5cc81c995c5d5a5c9959607a1b815260200192915050565b62000a118162000656565b82525050565b62000a1162000a268262000656565b62000656565b600062000a3a828562000a17565b60208201915062000a4c828462000a17565b5060200192915050565b6040808252810162000a69818562000898565b905062000a7a602083018462000a06565b9392505050565b6020808252810162000a9381620008d8565b92915050565b6020808252810162000a938162000913565b6020808252810162000a938162000961565b6020808252810162000a93816200099c565b6020808252810162000a9381620009d7565b5190565b90815260200190565b60005b8381101562000b0b57818101518382015260200162000af1565b8381111562000b1b576000848401525b50505050565b601f01601f191690565b6120a78062000b3b6000396000f3fe608060405234801561001057600080fd5b506004361061007d5760003560e01c8063b9db15b41161005b578063b9db15b4146100e9578063cf5db7f414610109578063d5356ffa1461011c578063e0f6ef871461012f5761007d565b80632df0788f146100825780637acc0b20146100ab578063ac9dcd44146100d4575b600080fd5b6100956100903660046117d6565b610144565b6040516100a29190611dba565b60405180910390f35b6100be6100b93660046117d6565b61015f565b6040516100a29a99989796959493929190611ecf565b6100e76100e23660046117fc565b6104f8565b005b6100fc6100f73660046117d6565b6106fe565b6040516100a29190611eb0565b6100e761011736600461165b565b610e50565b6100e761012a3660046117d6565b6112b8565b61013761131a565b6040516100a29190611ec1565b6001602052600090815260409020546001600160a01b031681565b600060208181529181526040908190208054600180830180548551600293821615610100026000190190911692909204601f81018790048702830187019095528482529194929390928301828280156101f95780601f106101ce576101008083540402835291602001916101f9565b820191906000526020600020905b8154815290600101906020018083116101dc57829003601f168201915b50505060028085018054604080516020601f600019610100600187161502019094169590950492830185900485028101850190915281815295969594509092509083018282801561028b5780601f106102605761010080835404028352916020019161028b565b820191906000526020600020905b81548152906001019060200180831161026e57829003601f168201915b505050505090806003015490806006015490806007018054600181600116156101000203166002900480601f0160208091040260200160405190810160405280929190818152602001828054600181600116156101000203166002900480156103355780601f1061030a57610100808354040283529160200191610335565b820191906000526020600020905b81548152906001019060200180831161031857829003601f168201915b50505050600a8301805460408051602060026001851615610100026000190190941693909304601f81018490048402820184019092528181529495949350908301828280156103c55780601f1061039a576101008083540402835291602001916103c5565b820191906000526020600020905b8154815290600101906020018083116103a857829003601f168201915b50505050600b8301805460408051602060026001851615610100026000190190941693909304601f81018490048402820184019092528181529495949350908301828280156104555780601f1061042a57610100808354040283529160200191610455565b820191906000526020600020905b81548152906001019060200180831161043857829003601f168201915b50505050600c8301805460408051602060026001851615610100026000190190941693909304601f81018490048402820184019092528181529495949350908301828280156104e55780601f106104ba576101008083540402835291602001916104e5565b820191906000526020600020905b8154815290600101906020018083116104c857829003601f168201915b505050600e909301549192505060ff168a565b6000868152602081905260409020600e015460ff166105325760405162461bcd60e51b815260040161052990611e60565b60405180910390fd5b600082511180610543575060008151115b61055f5760405162461bcd60e51b815260040161052990611e80565b600086815260208181526040822060050180546001810180835591845292829020885191936105949391019190890190611364565b50506000868152602081905260409020426006909101558151156105d75760008681526020818152604090912083516105d592600b90920191850190611364565b505b80511561060357600086815260208181526040909120825161060192600c90920191840190611364565b505b831561062c57600086815260208181526040822060080180546001810182559083529120018490555b6000868152602081815260408220600d81018054600181810183559185528385200180546001600160a01b031916331790556009909101805491820180825590845292829020865161068693919092019190870190611364565b50506000868152600160205260409081902080546001600160a01b031916331790819055905187917f1dbcbad1594085a9343d0c812ab6f5b1620e3a3a6384dd18f06519373e738994916106ee918991899189916001600160a01b0391909116904290611de8565b60405180910390a2505050505050565b6107066113e2565b6000828152602081905260409020600e015460ff166107375760405162461bcd60e51b815260040161052990611e60565b600080838152602001908152602001600020604051806101e001604052908160008201548152602001600182018054600181600116156101000203166002900480601f0160208091040260200160405190810160405280929190818152602001828054600181600116156101000203166002900480156107f85780601f106107cd576101008083540402835291602001916107f8565b820191906000526020600020905b8154815290600101906020018083116107db57829003601f168201915b5050509183525050600282810180546040805160206001841615610100026000190190931694909404601f8101839004830285018301909152808452938101939083018282801561088a5780601f1061085f5761010080835404028352916020019161088a565b820191906000526020600020905b81548152906001019060200180831161086d57829003601f168201915b505050505081526020016003820154815260200160048201805480602002602001604051908101604052809291908181526020016000905b8282101561096d5760008481526020908190208301805460408051601f60026000196101006001871615020190941693909304928301859004850281018501909152818152928301828280156109595780601f1061092e57610100808354040283529160200191610959565b820191906000526020600020905b81548152906001019060200180831161093c57829003601f168201915b5050505050815260200190600101906108c2565b50505050815260200160058201805480602002602001604051908101604052809291908181526020016000905b82821015610a455760008481526020908190208301805460408051601f6002600019610100600187161502019094169390930492830185900485028101850190915281815292830182828015610a315780601f10610a0657610100808354040283529160200191610a31565b820191906000526020600020905b815481529060010190602001808311610a1457829003601f168201915b50505050508152602001906001019061099a565b50505090825250600682015460208083019190915260078301805460408051601f60026000196101006001871615020190941693909304928301859004850281018501825282815294019392830182828015610ae25780601f10610ab757610100808354040283529160200191610ae2565b820191906000526020600020905b815481529060010190602001808311610ac557829003601f168201915b5050505050815260200160088201805480602002602001604051908101604052809291908181526020018280548015610b3a57602002820191906000526020600020905b815481526020019060010190808311610b26575b5050505050815260200160098201805480602002602001604051908101604052809291908181526020016000905b82821015610c135760008481526020908190208301805460408051601f6002600019610100600187161502019094169390930492830185900485028101850190915281815292830182828015610bff5780601f10610bd457610100808354040283529160200191610bff565b820191906000526020600020905b815481529060010190602001808311610be257829003601f168201915b505050505081526020019060010190610b68565b50505090825250600a8201805460408051602060026001851615610100026000190190941693909304601f8101849004840282018401909252818152938201939291830182828015610ca65780601f10610c7b57610100808354040283529160200191610ca6565b820191906000526020600020905b815481529060010190602001808311610c8957829003601f168201915b5050509183525050600b8201805460408051602060026001851615610100026000190190941693909304601f8101849004840282018401909252818152938201939291830182828015610d3a5780601f10610d0f57610100808354040283529160200191610d3a565b820191906000526020600020905b815481529060010190602001808311610d1d57829003601f168201915b5050509183525050600c8201805460408051602060026001851615610100026000190190941693909304601f8101849004840282018401909252818152938201939291830182828015610dce5780601f10610da357610100808354040283529160200191610dce565b820191906000526020600020905b815481529060010190602001808311610db157829003601f168201915b50505050508152602001600d8201805480602002602001604051908101604052809291908181526020018280548015610e3057602002820191906000526020600020905b81546001600160a01b03168152600190910190602001808311610e12575b5050509183525050600e919091015460ff16151560209091015292915050565b6000895111610e715760405162461bcd60e51b815260040161052990611e40565b6000885111610e925760405162461bcd60e51b815260040161052990611e90565b6000875111610eb35760405162461bcd60e51b815260040161052990611e70565b600083511180610ec4575060008251115b610ee05760405162461bcd60e51b815260040161052990611e50565b6000865111610f015760405162461bcd60e51b815260040161052990611ea0565b6000610f0b611320565b600280546001908101918290559192501415610f25575060015b604080516001808252818301909252606091816020015b6060815260200190600190039081610f3c5790505090508881600081518110610f6157fe5b60209081029190910101526040805160018082528183019092526060918160200160208202803883390190505090508781600081518110610f9e57fe5b6020908102919091010152604080516001808252818301909252606091816020015b6060815260200190600190039081610fc05790505090508781600081518110610fe557fe5b6020908102919091010152604080516001808252818301909252606091816020016020820280388339019050509050338160008151811061102257fe5b60200260200101906001600160a01b031690816001600160a01b031681525050604051806101e001604052808681526020018f81526020018e815260200142815260200185815260200160006040519080825280602002602001820160405280156110a157816020015b606081526020019060019003908161108c5790505b508152602001600081526020018c815260200184815260200183815260200189815260200188815260200187815260200182815260200160011515815250600080878152602001908152602001600020600082015181600001556020820151816001019080519060200190611117929190611364565b5060408201518051611133916002840191602090910190611364565b50606082015160038201556080820151805161115991600484019160209091019061145a565b5060a0820151805161117591600584019160209091019061145a565b5060c0820151600682015560e0820151805161119b916007840191602090910190611364565b5061010082015180516111b89160088401916020909101906114b3565b5061012082015180516111d591600984019160209091019061145a565b5061014082015180516111f291600a840191602090910190611364565b50610160820151805161120f91600b840191602090910190611364565b50610180820151805161122c91600c840191602090910190611364565b506101a0820151805161124991600d8401916020909101906114ed565b506101c082015181600e0160006101000a81548160ff021916908315150217905550905050847f57030c25126c4f4705ce7d82daf497a7005ee8015063d65c5c89481076f138648f426040516112a0929190611dc8565b60405180910390a25050505050505050505050505050565b6000818152602081905260409020600e015460ff166112e95760405162461bcd60e51b815260040161052990611e60565b6000908152602081815260408220600d01805460018101825590835291200180546001600160a01b03191633179055565b60025481565b60008064e8d4a51000424460405160200161133c929190611d94565b6040516020818303038152906040528051906020012060001c8161135c57fe5b069150505b90565b828054600181600116156101000203166002900490600052602060002090601f016020900481019282601f106113a557805160ff19168380011785556113d2565b828001600101855582156113d2579182015b828111156113d25782518255916020019190600101906113b7565b506113de92915061154e565b5090565b604051806101e0016040528060008152602001606081526020016060815260200160008152602001606081526020016060815260200160008152602001606081526020016060815260200160608152602001606081526020016060815260200160608152602001606081526020016000151581525090565b8280548282559060005260206000209081019282156114a7579160200282015b828111156114a75782518051611497918491602090910190611364565b509160200191906001019061147a565b506113de929150611568565b8280548282559060005260206000209081019282156113d257916020028201828111156113d25782518255916020019190600101906113b7565b828054828255906000526020600020908101928215611542579160200282015b8281111561154257825182546001600160a01b0319166001600160a01b0390911617825560209092019160019091019061150d565b506113de92915061158b565b61136191905b808211156113de5760008155600101611554565b61136191905b808211156113de57600061158282826115af565b5060010161156e565b61136191905b808211156113de5780546001600160a01b0319168155600101611591565b50805460018160011615610100020316600290046000825580601f106115d557506115f3565b601f0160209004906000526020600020908101906115f3919061154e565b50565b600082601f83011261160757600080fd5b813561161a61161582611fb4565b611f8e565b9150808252602083016020830185838301111561163657600080fd5b61164183828461200a565b50505092915050565b803561165581612050565b92915050565b60008060008060008060008060006101208a8c03121561167a57600080fd5b89356001600160401b0381111561169057600080fd5b61169c8c828d016115f6565b99505060208a01356001600160401b038111156116b857600080fd5b6116c48c828d016115f6565b98505060408a01356001600160401b038111156116e057600080fd5b6116ec8c828d016115f6565b97505060608a01356001600160401b0381111561170857600080fd5b6117148c828d016115f6565b96505060806117258c828d0161164a565b95505060a08a01356001600160401b0381111561174157600080fd5b61174d8c828d016115f6565b94505060c08a01356001600160401b0381111561176957600080fd5b6117758c828d016115f6565b93505060e08a01356001600160401b0381111561179157600080fd5b61179d8c828d016115f6565b9250506101008a01356001600160401b038111156117ba57600080fd5b6117c68c828d016115f6565b9150509295985092959850929598565b6000602082840312156117e857600080fd5b60006117f4848461164a565b949350505050565b60008060008060008060c0878903121561181557600080fd5b6000611821898961164a565b96505060208701356001600160401b0381111561183d57600080fd5b61184989828a016115f6565b955050604061185a89828a0161164a565b94505060608701356001600160401b0381111561187657600080fd5b61188289828a016115f6565b93505060808701356001600160401b0381111561189e57600080fd5b6118aa89828a016115f6565b92505060a08701356001600160401b038111156118c657600080fd5b6118d289828a016115f6565b9150509295509295509295565b60006118eb8383611912565b505060200190565b60006118ff8383611a3f565b9392505050565b60006118eb8383611d7a565b61191b81611fee565b82525050565b600061192c82611fe1565b6119368185611fe5565b935061194183611fdb565b8060005b8381101561196f57815161195988826118df565b975061196483611fdb565b925050600101611945565b509495945050505050565b600061198582611fe1565b61198f8185611fe5565b9350836020820285016119a185611fdb565b8060005b858110156119db57848403895281516119be85826118f3565b94506119c983611fdb565b60209a909a01999250506001016119a5565b5091979650505050505050565b60006119f382611fe1565b6119fd8185611fe5565b9350611a0883611fdb565b8060005b8381101561196f578151611a208882611906565b9750611a2b83611fdb565b925050600101611a0c565b61191b81611ff9565b6000611a4a82611fe1565b611a548185611fe5565b9350611a64818560208601612016565b611a6d81612046565b9093019392505050565b6000611a84601883611fe5565b7f50726f64756374206e616d652069732072657175697265640000000000000000815260200192915050565b6000611abd602a83611fe5565b7f50726f7669646572206e616d6520697320726571756972656420666f7220726581526933b4b9ba3930ba34b7b760b11b602082015260400192915050565b6000611b09601183611fe5565b70141c9bd91d58dd081b9bdd08199bdd5b99607a1b815260200192915050565b6000611b36601483611fe5565b73131bd8d85d1a5bdb881a5cc81c995c5d5a5c995960621b815260200192915050565b6000611b66601f83611fe5565b7f50726f766964657220697320726571756972656420666f722075706461746500815260200192915050565b6000611b9f601f83611fe5565b7f50726f64756374206465736372697074696f6e20697320726571756972656400815260200192915050565b6000611bd8601183611fe5565b7010985d18da081a5cc81c995c5d5a5c9959607a1b815260200192915050565b80516000906101e0840190611c0d8582611d7a565b5060208301518482036020860152611c258282611a3f565b91505060408301518482036040860152611c3f8282611a3f565b9150506060830151611c546060860182611d7a565b5060808301518482036080860152611c6c828261197a565b91505060a083015184820360a0860152611c86828261197a565b91505060c0830151611c9b60c0860182611d7a565b5060e083015184820360e0860152611cb38282611a3f565b915050610100830151848203610100860152611ccf82826119e8565b915050610120830151848203610120860152611ceb828261197a565b915050610140830151848203610140860152611d078282611a3f565b915050610160830151848203610160860152611d238282611a3f565b915050610180830151848203610180860152611d3f8282611a3f565b9150506101a08301518482036101a0860152611d5b8282611921565b9150506101c0830151611d726101c0860182611a36565b509392505050565b61191b81611361565b61191b611d8f82611361565b611361565b6000611da08285611d83565b602082019150611db08284611d83565b5060200192915050565b602081016116558284611912565b60408082528101611dd98185611a3f565b90506118ff6020830184611d7a565b60a08082528101611df98188611a3f565b9050611e086020830187611d7a565b8181036040830152611e1a8186611a3f565b9050611e296060830185611912565b611e366080830184611d7a565b9695505050505050565b6020808252810161165581611a77565b6020808252810161165581611ab0565b6020808252810161165581611afc565b6020808252810161165581611b29565b6020808252810161165581611b59565b6020808252810161165581611b92565b6020808252810161165581611bcb565b602080825281016118ff8184611bf8565b602081016116558284611d7a565b6101408101611ede828d611d7a565b8181036020830152611ef0818c611a3f565b90508181036040830152611f04818b611a3f565b9050611f13606083018a611d7a565b611f206080830189611d7a565b81810360a0830152611f328188611a3f565b905081810360c0830152611f468187611a3f565b905081810360e0830152611f5a8186611a3f565b9050818103610100830152611f6f8185611a3f565b9050611f7f610120830184611a36565b9b9a5050505050505050505050565b6040518181016001600160401b0381118282101715611fac57600080fd5b604052919050565b60006001600160401b03821115611fca57600080fd5b506020601f91909101601f19160190565b60200190565b5190565b90815260200190565b600061165582611ffe565b151590565b6001600160a01b031690565b82818337506000910152565b60005b83811015612031578181015183820152602001612019565b83811115612040576000848401525b50505050565b601f01601f191690565b61205981611361565b81146115f357600080fdfea365627a7a7231582058b47051489930985e3e888a35ab3892027da5d357577e2ca56c4d226a2d54156c6578706572696d656e74616cf564736f6c63430005100040",
  "source": "// SPDX-License-Identifier: MIT\r\n\r\npragma solidity ^0.5.9;\r\npragma experimental ABIEncoderV2;\r\n\r\ncontract ProductRegistration {\r\n    struct Product {\r\n        uint256 id;\r\n        string productName;\r\n        string productDescription;\r\n        uint256 dateOfRegistration;\r\n        string[] locationOfRegistration;\r\n        string[] locationsOfUpdates;\r\n        uint256 dateOfUpdate;\r\n        string batch;\r\n        uint256[] prices;\r\n        string[] certifications;\r\n        string manufacturer;\r\n        string distributor;\r\n        string retailer;\r\n        address[] owners;\r\n        bool isRegistered;\r\n    }\r\n\r\n    mapping(uint256 => Product) public products;\r\n    mapping(uint256 => address) public lastUpdatedBy;\r\n    uint256 public productCount = 0;\r\n\r\n    event ProductUpdated(\r\n        uint256 indexed id,\r\n        string locationOfUpdate,\r\n        uint256 price,\r\n        string certification,\r\n        address updatedBy,\r\n        uint256 dateOfUpdate\r\n    );\r\n\r\n    event ProductRegistered(\r\n        uint256 indexed id,\r\n        string productName,\r\n        uint256 dateOfRegistration\r\n    );\r\n\r\n    constructor() public {\r\n        registerProduct(\r\n            \"First product ever\",\r\n            \"Product Description 1\",\r\n            \"Location1\",\r\n            \"Batch1\",\r\n            100,\r\n            \"certification1\",\r\n            \"Manufacturer1\",\r\n            \"Distributor1\",\r\n            \"Retailer1\"\r\n        );\r\n    }\r\n\r\n    function generateRandomId() private view returns (uint256) {\r\n        uint256 randomNumber = uint256(\r\n            keccak256(abi.encodePacked(block.timestamp, block.difficulty))\r\n        ) % 1e12;\r\n        return randomNumber;\r\n    }\r\n\r\n    function registerProduct(\r\n        string memory productName,\r\n        string memory productDescription,\r\n        string memory locationOfRegistration,\r\n        string memory batch,\r\n        uint256 price,\r\n        string memory certification,\r\n        string memory manufacturer,\r\n        string memory distributor,\r\n        string memory retailer\r\n    ) public {\r\n        require(bytes(productName).length > 0, \"Product name is required\");\r\n        require(\r\n            bytes(productDescription).length > 0,\r\n            \"Product description is required\"\r\n        );\r\n        require(\r\n            bytes(locationOfRegistration).length > 0,\r\n            \"Location is required\"\r\n        );\r\n        require(\r\n            bytes(manufacturer).length > 0 || bytes(distributor).length > 0,\r\n            \"Provider name is required for registration\"\r\n        );\r\n        require(bytes(batch).length > 0, \"Batch is required\");\r\n\r\n        uint256 productId = generateRandomId();\r\n\r\n        productCount++;\r\n        if (productCount == 1) productId = 1;\r\n\r\n        string[] memory locationOfRegistrations = new string[](1);\r\n        locationOfRegistrations[0] = locationOfRegistration;\r\n\r\n        uint256[] memory prices = new uint256[](1);\r\n        prices[0] = price;\r\n\r\n        string[] memory certifications = new string[](1);\r\n        certifications[0] = certification;\r\n\r\n        address[] memory owners = new address[](1);\r\n        owners[0] = msg.sender;\r\n\r\n        products[productId] = Product(\r\n            productId,\r\n            productName,\r\n            productDescription,\r\n            block.timestamp,\r\n            locationOfRegistrations,\r\n            new string[](0),\r\n            0,\r\n            batch,\r\n            prices,\r\n            certifications,\r\n            manufacturer,\r\n            distributor,\r\n            retailer,\r\n            owners,\r\n            true\r\n        );\r\n        emit ProductRegistered(productId, productName, block.timestamp);\r\n    }\r\n\r\n    function updateProduct(\r\n        uint256 id,\r\n        string memory locationOfUpdate,\r\n        uint256 price,\r\n        string memory certification,\r\n        string memory distributor,\r\n        string memory retailer\r\n    ) public {\r\n        require(products[id].isRegistered, \"Product not found\");\r\n        require(\r\n            bytes(distributor).length > 0 || bytes(retailer).length > 0,\r\n            \"Provider is required for update\"\r\n        );\r\n\r\n        products[id].locationsOfUpdates.push(locationOfUpdate);\r\n        products[id].dateOfUpdate = block.timestamp;\r\n        if (bytes(distributor).length > 0) {\r\n            products[id].distributor = distributor;\r\n        }\r\n        if (bytes(retailer).length > 0) {\r\n            products[id].retailer = retailer;\r\n        }\r\n        if (price > 0) {\r\n            products[id].prices.push(price);\r\n        }\r\n\r\n        products[id].owners.push(msg.sender);\r\n        products[id].certifications.push(certification);\r\n\r\n        lastUpdatedBy[id] = msg.sender;\r\n\r\n        emit ProductUpdated(\r\n            id,\r\n            locationOfUpdate,\r\n            price,\r\n            certification,\r\n            lastUpdatedBy[id],\r\n            block.timestamp\r\n        );\r\n    }\r\n\r\n    //for \"Add me as owner\" button\r\n    function addOwner(uint256 id) public {\r\n        require(products[id].isRegistered, \"Product not found\");\r\n        products[id].owners.push(msg.sender);\r\n    }\r\n\r\n    function getProduct(uint256 id) public view returns (Product memory) {\r\n        require(products[id].isRegistered, \"Product not found\");\r\n        return products[id];\r\n    }\r\n}\r\n",
  "sourcePath": "C:\\Users\\tdgal\\OneDrive\\Desktop\\Licentacod\\Licenta_WebSite\\ProductTracking\\smart-contracts\\contracts\\ProductRegistration.sol",
  "compiler": {
    "name": "solc",
    "version": "0.5.16+commit.9c3226ce.Emscripten.clang"
  },
  "schemaVersion": "3.4.14",
  "updatedAt": "2023-06-26T11:04:46.472Z",
  "networkType": "ethereum",
  "devdoc": {
    "methods": {}
  },
  "userdoc": {
    "methods": {}
  }
}