{
  "contractName": "ProductRegistration",
  "abi": [
    {
      "constant": true,
      "inputs": [],
      "name": "count",
      "outputs": [
        {
          "internalType": "uint256",
          "name": "",
          "type": "uint256"
        }
      ],
      "payable": false,
      "stateMutability": "view",
      "type": "function"
    }
  ],
  "bytecode": "0x608060405260008055348015601357600080fd5b506080806100226000396000f3fe6080604052348015600f57600080fd5b506004361060285760003560e01c806306661abd14602d575b600080fd5b60336045565b60408051918252519081900360200190f35b6000548156fea265627a7a7231582097ca2f80d1bb13332d62045068248ce562ce98e520657d7136d00083631e1c8264736f6c63430005100032",
  "source": "pragma solidity ^0.5.16;\r\n\r\ncontract ProductRegistration {\r\n    /*\r\n    struct Product {\r\n        uint256 id;\r\n        address provider;\r\n        string name;\r\n        string description;\r\n        uint256 timestamp;\r\n        bool isRegistered;\r\n    }*/\r\n\r\n    uint public count = 0;\r\n}\r\n",
  "sourcePath": "C:\\Users\\tdgal\\OneDrive\\Desktop\\Licentacod\\Licenta_WebSite\\ProductTracking\\smart-contracts\\contracts\\ProductRegistration.sol",
  "compiler": {
    "name": "solc",
    "version": "0.5.16+commit.9c3226ce.Emscripten.clang"
  },
  "schemaVersion": "3.4.14",
  "updatedAt": "2023-06-02T10:57:01.501Z",
  "devdoc": {
    "methods": {}
  },
  "userdoc": {
    "methods": {}
  }
}