{
  "contractName": "ProductRegistration",
  "abi": [
    {
      "inputs": [],
      "payable": false,
      "stateMutability": "nonpayable",
      "type": "constructor"
    },
    {
      "anonymous": false,
      "inputs": [
        {
          "indexed": true,
          "internalType": "uint256",
          "name": "id",
          "type": "uint256"
        },
        {
          "indexed": true,
          "internalType": "string",
          "name": "productName",
          "type": "string"
        },
        {
          "indexed": false,
          "internalType": "string",
          "name": "productDescription",
          "type": "string"
        },
        {
          "indexed": false,
          "internalType": "uint256",
          "name": "dateOfRegistration",
          "type": "uint256"
        },
        {
          "indexed": false,
          "internalType": "string",
          "name": "locationOfRegistration",
          "type": "string"
        },
        {
          "indexed": false,
          "internalType": "string",
          "name": "batch",
          "type": "string"
        },
        {
          "indexed": false,
          "internalType": "uint256",
          "name": "price",
          "type": "uint256"
        },
        {
          "indexed": false,
          "internalType": "string",
          "name": "certification",
          "type": "string"
        }
      ],
      "name": "ProductRegistered",
      "type": "event"
    },
    {
      "anonymous": false,
      "inputs": [
        {
          "indexed": true,
          "internalType": "uint256",
          "name": "id",
          "type": "uint256"
        },
        {
          "indexed": false,
          "internalType": "string",
          "name": "locationOfUpdate",
          "type": "string"
        },
        {
          "indexed": false,
          "internalType": "uint256",
          "name": "price",
          "type": "uint256"
        },
        {
          "indexed": false,
          "internalType": "string",
          "name": "certification",
          "type": "string"
        },
        {
          "indexed": false,
          "internalType": "address",
          "name": "updatedBy",
          "type": "address"
        },
        {
          "indexed": false,
          "internalType": "uint256",
          "name": "dateOfUpdate",
          "type": "uint256"
        }
      ],
      "name": "ProductUpdated",
      "type": "event"
    },
    {
      "constant": true,
      "inputs": [
        {
          "internalType": "uint256",
          "name": "",
          "type": "uint256"
        }
      ],
      "name": "lastUpdatedBy",
      "outputs": [
        {
          "internalType": "address",
          "name": "",
          "type": "address"
        }
      ],
      "payable": false,
      "stateMutability": "view",
      "type": "function"
    },
    {
      "constant": true,
      "inputs": [],
      "name": "productCount",
      "outputs": [
        {
          "internalType": "uint256",
          "name": "",
          "type": "uint256"
        }
      ],
      "payable": false,
      "stateMutability": "view",
      "type": "function"
    },
    {
      "constant": true,
      "inputs": [
        {
          "internalType": "uint256",
          "name": "",
          "type": "uint256"
        }
      ],
      "name": "products",
      "outputs": [
        {
          "internalType": "uint256",
          "name": "id",
          "type": "uint256"
        },
        {
          "internalType": "string",
          "name": "productName",
          "type": "string"
        },
        {
          "internalType": "string",
          "name": "productDescription",
          "type": "string"
        },
        {
          "internalType": "uint256",
          "name": "dateOfRegistration",
          "type": "uint256"
        },
        {
          "internalType": "uint256",
          "name": "dateOfUpdate",
          "type": "uint256"
        },
        {
          "internalType": "string",
          "name": "batch",
          "type": "string"
        },
        {
          "internalType": "string",
          "name": "manufacturer",
          "type": "string"
        },
        {
          "internalType": "string",
          "name": "distributor",
          "type": "string"
        },
        {
          "internalType": "string",
          "name": "retailer",
          "type": "string"
        },
        {
          "internalType": "bool",
          "name": "isRegistered",
          "type": "bool"
        }
      ],
      "payable": false,
      "stateMutability": "view",
      "type": "function"
    },
    {
      "constant": false,
      "inputs": [
        {
          "internalType": "string",
          "name": "productName",
          "type": "string"
        },
        {
          "internalType": "string",
          "name": "productDescription",
          "type": "string"
        },
        {
          "internalType": "string",
          "name": "locationOfRegistration",
          "type": "string"
        },
        {
          "internalType": "string",
          "name": "batch",
          "type": "string"
        },
        {
          "internalType": "uint256",
          "name": "price",
          "type": "uint256"
        },
        {
          "internalType": "string",
          "name": "certification",
          "type": "string"
        },
        {
          "internalType": "string",
          "name": "manufacturer",
          "type": "string"
        },
        {
          "internalType": "string",
          "name": "distributor",
          "type": "string"
        },
        {
          "internalType": "string",
          "name": "retailer",
          "type": "string"
        }
      ],
      "name": "registerProduct",
      "outputs": [],
      "payable": false,
      "stateMutability": "nonpayable",
      "type": "function"
    },
    {
      "constant": false,
      "inputs": [
        {
          "internalType": "uint256",
          "name": "id",
          "type": "uint256"
        },
        {
          "internalType": "string",
          "name": "locationOfUpdate",
          "type": "string"
        },
        {
          "internalType": "uint256",
          "name": "price",
          "type": "uint256"
        },
        {
          "internalType": "string",
          "name": "certification",
          "type": "string"
        },
        {
          "internalType": "string",
          "name": "distributor",
          "type": "string"
        },
        {
          "internalType": "string",
          "name": "retailer",
          "type": "string"
        }
      ],
      "name": "updateProduct",
      "outputs": [],
      "payable": false,
      "stateMutability": "nonpayable",
      "type": "function"
    },
    {
      "constant": false,
      "inputs": [
        {
          "internalType": "uint256",
          "name": "id",
          "type": "uint256"
        }
      ],
      "name": "addOwner",
      "outputs": [],
      "payable": false,
      "stateMutability": "nonpayable",
      "type": "function"
    },
    {
      "constant": true,
      "inputs": [
        {
          "internalType": "uint256",
          "name": "id",
          "type": "uint256"
        }
      ],
      "name": "getProduct",
      "outputs": [
        {
          "components": [
            {
              "internalType": "uint256",
              "name": "id",
              "type": "uint256"
            },
            {
              "internalType": "string",
              "name": "productName",
              "type": "string"
            },
            {
              "internalType": "string",
              "name": "productDescription",
              "type": "string"
            },
            {
              "internalType": "uint256",
              "name": "dateOfRegistration",
              "type": "uint256"
            },
            {
              "internalType": "string[]",
              "name": "locationOfRegistration",
              "type": "string[]"
            },
            {
              "internalType": "string[]",
              "name": "locationsOfUpdates",
              "type": "string[]"
            },
            {
              "internalType": "uint256",
              "name": "dateOfUpdate",
              "type": "uint256"
            },
            {
              "internalType": "string",
              "name": "batch",
              "type": "string"
            },
            {
              "internalType": "uint256[]",
              "name": "prices",
              "type": "uint256[]"
            },
            {
              "internalType": "string[]",
              "name": "certifications",
              "type": "string[]"
            },
            {
              "internalType": "string",
              "name": "manufacturer",
              "type": "string"
            },
            {
              "internalType": "string",
              "name": "distributor",
              "type": "string"
            },
            {
              "internalType": "string",
              "name": "retailer",
              "type": "string"
            },
            {
              "internalType": "address[]",
              "name": "owners",
              "type": "address[]"
            },
            {
              "internalType": "bool",
              "name": "isRegistered",
              "type": "bool"
            }
          ],
          "internalType": "struct ProductRegistration.Product",
          "name": "",
          "type": "tuple"
        }
      ],
      "payable": false,
      "stateMutability": "view",
      "type": "function"
    }
  ],
  "bytecode": "0x608060405260006002553480156200001657600080fd5b50620001556040518060400160405280600881526020016750726f647563743160c01b8152506040518060400160405280601581526020017f50726f64756374204465736372697074696f6e20310000000000000000000000815250604051806040016040528060098152602001684c6f636174696f6e3160b81b8152506040518060400160405280600681526020016542617463683160d01b81525060646040518060400160405280600e81526020016d63657274696669636174696f6e3160901b8152506040518060400160405280600d81526020016c4d616e7566616374757265723160981b8152506040518060400160405280600c81526020016b4469737472696275746f723160a01b8152506040518060400160405280600981526020016852657461696c65723160b81b8152506200029960201b60201c565b6200029360405180604001604052806008815260200167283937b23ab1ba1960c11b8152506040518060400160405280601581526020017f50726f64756374204465736372697074696f6e20320000000000000000000000815250604051806040016040528060098152602001682637b1b0ba34b7b71960b91b815250604051806040016040528060068152602001652130ba31b41960d11b81525060c86040518060400160405280600e81526020016d31b2b93a34b334b1b0ba34b7b71960911b8152506040518060400160405280600d81526020016c26b0b73ab330b1ba3ab932b91960991b8152506040518060400160405280600c81526020016b2234b9ba3934b13aba37b91960a11b815250604051806040016040528060098152602001682932ba30b4b632b91960b91b8152506200029960201b60201c565b62000c76565b6000895111620002c65760405162461bcd60e51b8152600401620002bd9062000bc7565b60405180910390fd5b6000885111620002ea5760405162461bcd60e51b8152600401620002bd9062000c03565b60008751116200030e5760405162461bcd60e51b8152600401620002bd9062000bf1565b60008351118062000320575060008251115b6200033f5760405162461bcd60e51b8152600401620002bd9062000bdf565b6000865111620003635760405162461bcd60e51b8152600401620002bd9062000c15565b60028054600190810190915560408051828152808201909152606091816020015b6060815260200190600190039081620003845790505090508781600081518110620003ab57fe5b60209081029190910101526040805160018082528183019092526060918160200160208202803883390190505090508681600081518110620003e957fe5b6020908102919091010152604080516001808252818301909252606091816020015b60608152602001906001900390816200040b57905050905086816000815181106200043257fe5b602090810291909101015260408051600180825281830190925260609181602001602082028038833901905050905033816000815181106200047057fe5b60200260200101906001600160a01b031690816001600160a01b031681525050604051806101e0016040528060025481526020018e81526020018d81526020014281526020018581526020016000604051908082528060200260200182016040528015620004f357816020015b6060815260200190600190039081620004dd5790505b508152602001600081526020018b81526020018481526020018381526020018881526020018781526020018681526020018281526020016001151581525060008060025481526020019081526020016000206000820151816000015560208201518160010190805190602001906200056d9291906200073d565b50604082015180516200058b9160028401916020909101906200073d565b506060820151600382015560808201518051620005b3916004840191602090910190620007c2565b5060a08201518051620005d1916005840191602090910190620007c2565b5060c0820151600682015560e08201518051620005f99160078401916020909101906200073d565b5061010082015180516200061891600884019160209091019062000822565b50610120820151805162000637916009840191602090910190620007c2565b5061014082015180516200065691600a8401916020909101906200073d565b5061016082015180516200067591600b8401916020909101906200073d565b5061018082015180516200069491600c8401916020909101906200073d565b506101a08201518051620006b391600d8401916020909101906200085f565b506101c09190910151600e909101805460ff1916911515919091179055604051620006e0908e9062000b33565b60405180910390206002547f5c47f17ba7e9e3f2fa2ca7e2c8fc4e00fd6af4917707dfb42a847805edd0653e8e428f8f8f8f604051620007269695949392919062000b48565b60405180910390a350505050505050505050505050565b828054600181600116156101000203166002900490600052602060002090601f016020900481019282601f106200078057805160ff1916838001178555620007b0565b82800160010185558215620007b0579182015b82811115620007b057825182559160200191906001019062000793565b50620007be929150620008c5565b5090565b82805482825590600052602060002090810192821562000814579160200282015b82811115620008145782518051620008039184916020909101906200073d565b5091602001919060010190620007e3565b50620007be929150620008e5565b828054828255906000526020600020908101928215620007b05791602002820182811115620007b057825182559160200191906001019062000793565b828054828255906000526020600020908101928215620008b7579160200282015b82811115620008b757825182546001600160a01b0319166001600160a01b0390911617825560209092019160019091019062000880565b50620007be9291506200090d565b620008e291905b80821115620007be5760008155600101620008cc565b90565b620008e291905b80821115620007be57600062000903828262000934565b50600101620008ec565b620008e291905b80821115620007be5780546001600160a01b031916815560010162000914565b50805460018160011615610100020316600290046000825580601f106200095c57506200097c565b601f0160209004906000526020600020908101906200097c9190620008c5565b50565b60006200098c8262000c27565b62000998818562000c2b565b9350620009aa81856020860162000c39565b620009b58162000c6c565b9093019392505050565b6000620009cc8262000c27565b620009d8818562000c34565b9350620009ea81856020860162000c39565b9290920192915050565b600062000a0360188362000c2b565b7f50726f64756374206e616d652069732072657175697265640000000000000000815260200192915050565b600062000a3e602a8362000c2b565b7f50726f7669646572206e616d6520697320726571756972656420666f7220726581526933b4b9ba3930ba34b7b760b11b602082015260400192915050565b600062000a8c60148362000c2b565b7f4c6f636174696f6e206973207265717569726564000000000000000000000000815260200192915050565b600062000ac7601f8362000c2b565b7f50726f64756374206465736372697074696f6e20697320726571756972656400815260200192915050565b600062000b0260118362000c2b565b7010985d18da081a5cc81c995c5d5a5c9959607a1b815260200192915050565b62000b2d81620008e2565b82525050565b600062000b418284620009bf565b9392505050565b60c0808252810162000b5b81896200097f565b905062000b6c602083018862000b22565b818103604083015262000b8081876200097f565b9050818103606083015262000b9681866200097f565b905062000ba7608083018562000b22565b81810360a083015262000bbb81846200097f565b98975050505050505050565b6020808252810162000bd981620009f4565b92915050565b6020808252810162000bd98162000a2f565b6020808252810162000bd98162000a7d565b6020808252810162000bd98162000ab8565b6020808252810162000bd98162000af3565b5190565b90815260200190565b919050565b60005b8381101562000c5657818101518382015260200162000c3c565b8381111562000c66576000848401525b50505050565b601f01601f191690565b6120c38062000c866000396000f3fe608060405234801561001057600080fd5b506004361061007d5760003560e01c8063b9db15b41161005b578063b9db15b4146100e9578063cf5db7f414610109578063d5356ffa1461011c578063e0f6ef871461012f5761007d565b80632df0788f146100825780637acc0b20146100ab578063ac9dcd44146100d4575b600080fd5b610095610090366004611796565b610144565b6040516100a29190611d7e565b60405180910390f35b6100be6100b9366004611796565b61015f565b6040516100a29a99989796959493929190611ee6565b6100e76100e23660046117bc565b6104f8565b005b6100fc6100f7366004611796565b6106fe565b6040516100a29190611ec7565b6100e761011736600461161b565b610e50565b6100e761012a366004611796565b6112b9565b61013761131b565b6040516100a29190611ed8565b6001602052600090815260409020546001600160a01b031681565b600060208181529181526040908190208054600180830180548551600293821615610100026000190190911692909204601f81018790048702830187019095528482529194929390928301828280156101f95780601f106101ce576101008083540402835291602001916101f9565b820191906000526020600020905b8154815290600101906020018083116101dc57829003601f168201915b50505060028085018054604080516020601f600019610100600187161502019094169590950492830185900485028101850190915281815295969594509092509083018282801561028b5780601f106102605761010080835404028352916020019161028b565b820191906000526020600020905b81548152906001019060200180831161026e57829003601f168201915b505050505090806003015490806006015490806007018054600181600116156101000203166002900480601f0160208091040260200160405190810160405280929190818152602001828054600181600116156101000203166002900480156103355780601f1061030a57610100808354040283529160200191610335565b820191906000526020600020905b81548152906001019060200180831161031857829003601f168201915b50505050600a8301805460408051602060026001851615610100026000190190941693909304601f81018490048402820184019092528181529495949350908301828280156103c55780601f1061039a576101008083540402835291602001916103c5565b820191906000526020600020905b8154815290600101906020018083116103a857829003601f168201915b50505050600b8301805460408051602060026001851615610100026000190190941693909304601f81018490048402820184019092528181529495949350908301828280156104555780601f1061042a57610100808354040283529160200191610455565b820191906000526020600020905b81548152906001019060200180831161043857829003601f168201915b50505050600c8301805460408051602060026001851615610100026000190190941693909304601f81018490048402820184019092528181529495949350908301828280156104e55780601f106104ba576101008083540402835291602001916104e5565b820191906000526020600020905b8154815290600101906020018083116104c857829003601f168201915b505050600e909301549192505060ff168a565b6000868152602081905260409020600e015460ff166105325760405162461bcd60e51b815260040161052990611e77565b60405180910390fd5b600082511180610543575060008151115b61055f5760405162461bcd60e51b815260040161052990611e97565b600086815260208181526040822060050180546001810180835591845292829020885191936105949391019190890190611321565b50506000868152602081905260409020426006909101558151156105d75760008681526020818152604090912083516105d592600b90920191850190611321565b505b80511561060357600086815260208181526040909120825161060192600c90920191840190611321565b505b831561062c57600086815260208181526040822060080180546001810182559083529120018490555b6000868152602081815260408220600d81018054600181810183559185528385200180546001600160a01b031916331790556009909101805491820180825590845292829020865161068693919092019190870190611321565b50506000868152600160205260409081902080546001600160a01b031916331790819055905187917f1dbcbad1594085a9343d0c812ab6f5b1620e3a3a6384dd18f06519373e738994916106ee918991899189916001600160a01b0391909116904290611d8c565b60405180910390a2505050505050565b61070661139f565b6000828152602081905260409020600e015460ff166107375760405162461bcd60e51b815260040161052990611e77565b600080838152602001908152602001600020604051806101e001604052908160008201548152602001600182018054600181600116156101000203166002900480601f0160208091040260200160405190810160405280929190818152602001828054600181600116156101000203166002900480156107f85780601f106107cd576101008083540402835291602001916107f8565b820191906000526020600020905b8154815290600101906020018083116107db57829003601f168201915b5050509183525050600282810180546040805160206001841615610100026000190190931694909404601f8101839004830285018301909152808452938101939083018282801561088a5780601f1061085f5761010080835404028352916020019161088a565b820191906000526020600020905b81548152906001019060200180831161086d57829003601f168201915b505050505081526020016003820154815260200160048201805480602002602001604051908101604052809291908181526020016000905b8282101561096d5760008481526020908190208301805460408051601f60026000196101006001871615020190941693909304928301859004850281018501909152818152928301828280156109595780601f1061092e57610100808354040283529160200191610959565b820191906000526020600020905b81548152906001019060200180831161093c57829003601f168201915b5050505050815260200190600101906108c2565b50505050815260200160058201805480602002602001604051908101604052809291908181526020016000905b82821015610a455760008481526020908190208301805460408051601f6002600019610100600187161502019094169390930492830185900485028101850190915281815292830182828015610a315780601f10610a0657610100808354040283529160200191610a31565b820191906000526020600020905b815481529060010190602001808311610a1457829003601f168201915b50505050508152602001906001019061099a565b50505090825250600682015460208083019190915260078301805460408051601f60026000196101006001871615020190941693909304928301859004850281018501825282815294019392830182828015610ae25780601f10610ab757610100808354040283529160200191610ae2565b820191906000526020600020905b815481529060010190602001808311610ac557829003601f168201915b5050505050815260200160088201805480602002602001604051908101604052809291908181526020018280548015610b3a57602002820191906000526020600020905b815481526020019060010190808311610b26575b5050505050815260200160098201805480602002602001604051908101604052809291908181526020016000905b82821015610c135760008481526020908190208301805460408051601f6002600019610100600187161502019094169390930492830185900485028101850190915281815292830182828015610bff5780601f10610bd457610100808354040283529160200191610bff565b820191906000526020600020905b815481529060010190602001808311610be257829003601f168201915b505050505081526020019060010190610b68565b50505090825250600a8201805460408051602060026001851615610100026000190190941693909304601f8101849004840282018401909252818152938201939291830182828015610ca65780601f10610c7b57610100808354040283529160200191610ca6565b820191906000526020600020905b815481529060010190602001808311610c8957829003601f168201915b5050509183525050600b8201805460408051602060026001851615610100026000190190941693909304601f8101849004840282018401909252818152938201939291830182828015610d3a5780601f10610d0f57610100808354040283529160200191610d3a565b820191906000526020600020905b815481529060010190602001808311610d1d57829003601f168201915b5050509183525050600c8201805460408051602060026001851615610100026000190190941693909304601f8101849004840282018401909252818152938201939291830182828015610dce5780601f10610da357610100808354040283529160200191610dce565b820191906000526020600020905b815481529060010190602001808311610db157829003601f168201915b50505050508152602001600d8201805480602002602001604051908101604052809291908181526020018280548015610e3057602002820191906000526020600020905b81546001600160a01b03168152600190910190602001808311610e12575b5050509183525050600e919091015460ff16151560209091015292915050565b6000895111610e715760405162461bcd60e51b815260040161052990611e57565b6000885111610e925760405162461bcd60e51b815260040161052990611ea7565b6000875111610eb35760405162461bcd60e51b815260040161052990611e87565b600083511180610ec4575060008251115b610ee05760405162461bcd60e51b815260040161052990611e67565b6000865111610f015760405162461bcd60e51b815260040161052990611eb7565b60028054600190810190915560408051828152808201909152606091816020015b6060815260200190600190039081610f225790505090508781600081518110610f4757fe5b60209081029190910101526040805160018082528183019092526060918160200160208202803883390190505090508681600081518110610f8457fe5b6020908102919091010152604080516001808252818301909252606091816020015b6060815260200190600190039081610fa65790505090508681600081518110610fcb57fe5b6020908102919091010152604080516001808252818301909252606091816020016020820280388339019050509050338160008151811061100857fe5b60200260200101906001600160a01b031690816001600160a01b031681525050604051806101e0016040528060025481526020018e81526020018d8152602001428152602001858152602001600060405190808252806020026020018201604052801561108957816020015b60608152602001906001900390816110745790505b508152602001600081526020018b8152602001848152602001838152602001888152602001878152602001868152602001828152602001600115158152506000806002548152602001908152602001600020600082015181600001556020820151816001019080519060200190611101929190611321565b506040820151805161111d916002840191602090910190611321565b506060820151600382015560808201518051611143916004840191602090910190611417565b5060a0820151805161115f916005840191602090910190611417565b5060c0820151600682015560e08201518051611185916007840191602090910190611321565b5061010082015180516111a2916008840191602090910190611470565b5061012082015180516111bf916009840191602090910190611417565b5061014082015180516111dc91600a840191602090910190611321565b5061016082015180516111f991600b840191602090910190611321565b50610180820151805161121691600c840191602090910190611321565b506101a0820151805161123391600d8401916020909101906114aa565b506101c09190910151600e909101805460ff191691151591909117905560405161125e908e90611d72565b60405180910390206002547f5c47f17ba7e9e3f2fa2ca7e2c8fc4e00fd6af4917707dfb42a847805edd0653e8e428f8f8f8f6040516112a296959493929190611de4565b60405180910390a350505050505050505050505050565b6000818152602081905260409020600e015460ff166112ea5760405162461bcd60e51b815260040161052990611e77565b6000908152602081815260408220600d01805460018101825590835291200180546001600160a01b03191633179055565b60025481565b828054600181600116156101000203166002900490600052602060002090601f016020900481019282601f1061136257805160ff191683800117855561138f565b8280016001018555821561138f579182015b8281111561138f578251825591602001919060010190611374565b5061139b92915061150b565b5090565b604051806101e0016040528060008152602001606081526020016060815260200160008152602001606081526020016060815260200160008152602001606081526020016060815260200160608152602001606081526020016060815260200160608152602001606081526020016000151581525090565b828054828255906000526020600020908101928215611464579160200282015b828111156114645782518051611454918491602090910190611321565b5091602001919060010190611437565b5061139b929150611528565b82805482825590600052602060002090810192821561138f579160200282018281111561138f578251825591602001919060010190611374565b8280548282559060005260206000209081019282156114ff579160200282015b828111156114ff57825182546001600160a01b0319166001600160a01b039091161782556020909201916001909101906114ca565b5061139b92915061154b565b61152591905b8082111561139b5760008155600101611511565b90565b61152591905b8082111561139b576000611542828261156f565b5060010161152e565b61152591905b8082111561139b5780546001600160a01b0319168155600101611551565b50805460018160011615610100020316600290046000825580601f1061159557506115b3565b601f0160209004906000526020600020908101906115b3919061150b565b50565b600082601f8301126115c757600080fd5b81356115da6115d582611fcb565b611fa5565b915080825260208301602083018583830111156115f657600080fd5b611601838284612026565b50505092915050565b80356116158161206c565b92915050565b60008060008060008060008060006101208a8c03121561163a57600080fd5b89356001600160401b0381111561165057600080fd5b61165c8c828d016115b6565b99505060208a01356001600160401b0381111561167857600080fd5b6116848c828d016115b6565b98505060408a01356001600160401b038111156116a057600080fd5b6116ac8c828d016115b6565b97505060608a01356001600160401b038111156116c857600080fd5b6116d48c828d016115b6565b96505060806116e58c828d0161160a565b95505060a08a01356001600160401b0381111561170157600080fd5b61170d8c828d016115b6565b94505060c08a01356001600160401b0381111561172957600080fd5b6117358c828d016115b6565b93505060e08a01356001600160401b0381111561175157600080fd5b61175d8c828d016115b6565b9250506101008a01356001600160401b0381111561177a57600080fd5b6117868c828d016115b6565b9150509295985092959850929598565b6000602082840312156117a857600080fd5b60006117b4848461160a565b949350505050565b60008060008060008060c087890312156117d557600080fd5b60006117e1898961160a565b96505060208701356001600160401b038111156117fd57600080fd5b61180989828a016115b6565b955050604061181a89828a0161160a565b94505060608701356001600160401b0381111561183657600080fd5b61184289828a016115b6565b93505060808701356001600160401b0381111561185e57600080fd5b61186a89828a016115b6565b92505060a08701356001600160401b0381111561188657600080fd5b61189289828a016115b6565b9150509295509295509295565b60006118ab83836118d2565b505060200190565b60006118bf83836119ff565b9392505050565b60006118ab8383611d69565b6118db8161200a565b82525050565b60006118ec82611ff8565b6118f68185611ffc565b935061190183611ff2565b8060005b8381101561192f578151611919888261189f565b975061192483611ff2565b925050600101611905565b509495945050505050565b600061194582611ff8565b61194f8185611ffc565b93508360208202850161196185611ff2565b8060005b8581101561199b578484038952815161197e85826118b3565b945061198983611ff2565b60209a909a0199925050600101611965565b5091979650505050505050565b60006119b382611ff8565b6119bd8185611ffc565b93506119c883611ff2565b8060005b8381101561192f5781516119e088826118c6565b97506119eb83611ff2565b9250506001016119cc565b6118db81612015565b6000611a0a82611ff8565b611a148185611ffc565b9350611a24818560208601612032565b611a2d81612062565b9093019392505050565b6000611a4282611ff8565b611a4c8185612005565b9350611a5c818560208601612032565b9290920192915050565b6000611a73601883611ffc565b7f50726f64756374206e616d652069732072657175697265640000000000000000815260200192915050565b6000611aac602a83611ffc565b7f50726f7669646572206e616d6520697320726571756972656420666f7220726581526933b4b9ba3930ba34b7b760b11b602082015260400192915050565b6000611af8601183611ffc565b70141c9bd91d58dd081b9bdd08199bdd5b99607a1b815260200192915050565b6000611b25601483611ffc565b73131bd8d85d1a5bdb881a5cc81c995c5d5a5c995960621b815260200192915050565b6000611b55601f83611ffc565b7f50726f766964657220697320726571756972656420666f722075706461746500815260200192915050565b6000611b8e601f83611ffc565b7f50726f64756374206465736372697074696f6e20697320726571756972656400815260200192915050565b6000611bc7601183611ffc565b7010985d18da081a5cc81c995c5d5a5c9959607a1b815260200192915050565b80516000906101e0840190611bfc8582611d69565b5060208301518482036020860152611c1482826119ff565b91505060408301518482036040860152611c2e82826119ff565b9150506060830151611c436060860182611d69565b5060808301518482036080860152611c5b828261193a565b91505060a083015184820360a0860152611c75828261193a565b91505060c0830151611c8a60c0860182611d69565b5060e083015184820360e0860152611ca282826119ff565b915050610100830151848203610100860152611cbe82826119a8565b915050610120830151848203610120860152611cda828261193a565b915050610140830151848203610140860152611cf682826119ff565b915050610160830151848203610160860152611d1282826119ff565b915050610180830151848203610180860152611d2e82826119ff565b9150506101a08301518482036101a0860152611d4a82826118e1565b9150506101c0830151611d616101c08601826119f6565b509392505050565b6118db81611525565b60006118bf8284611a37565b6020810161161582846118d2565b60a08082528101611d9d81886119ff565b9050611dac6020830187611d69565b8181036040830152611dbe81866119ff565b9050611dcd60608301856118d2565b611dda6080830184611d69565b9695505050505050565b60c08082528101611df581896119ff565b9050611e046020830188611d69565b8181036040830152611e1681876119ff565b90508181036060830152611e2a81866119ff565b9050611e396080830185611d69565b81810360a0830152611e4b81846119ff565b98975050505050505050565b6020808252810161161581611a66565b6020808252810161161581611a9f565b6020808252810161161581611aeb565b6020808252810161161581611b18565b6020808252810161161581611b48565b6020808252810161161581611b81565b6020808252810161161581611bba565b602080825281016118bf8184611be7565b602081016116158284611d69565b6101408101611ef5828d611d69565b8181036020830152611f07818c6119ff565b90508181036040830152611f1b818b6119ff565b9050611f2a606083018a611d69565b611f376080830189611d69565b81810360a0830152611f4981886119ff565b905081810360c0830152611f5d81876119ff565b905081810360e0830152611f7181866119ff565b9050818103610100830152611f8681856119ff565b9050611f966101208301846119f6565b9b9a5050505050505050505050565b6040518181016001600160401b0381118282101715611fc357600080fd5b604052919050565b60006001600160401b03821115611fe157600080fd5b506020601f91909101601f19160190565b60200190565b5190565b90815260200190565b919050565b60006116158261201a565b151590565b6001600160a01b031690565b82818337506000910152565b60005b8381101561204d578181015183820152602001612035565b8381111561205c576000848401525b50505050565b601f01601f191690565b61207581611525565b81146115b357600080fdfea365627a7a723158205813089a57e17f227a1762d89fb2716cf5c1803c241959b57f838580305d07606c6578706572696d656e74616cf564736f6c63430005100040",
  "source": "// SPDX-License-Identifier: MIT\r\n\r\npragma solidity ^0.5.9;\r\npragma experimental ABIEncoderV2;\r\n\r\ncontract ProductRegistration {\r\n    struct Product {\r\n        uint256 id;\r\n        string productName;\r\n        string productDescription;\r\n        uint256 dateOfRegistration;\r\n        string[] locationOfRegistration; // renamed from geoLocations\r\n        string[] locationsOfUpdates; // added field\r\n        uint256 dateOfUpdate; // added field\r\n        string batch;\r\n        uint256[] prices;\r\n        string[] certifications;\r\n        string manufacturer;\r\n        string distributor;\r\n        string retailer;\r\n        address[] owners;\r\n        bool isRegistered;\r\n    }\r\n\r\n    mapping(uint256 => Product) public products;\r\n    mapping(uint256 => address) public lastUpdatedBy;\r\n    uint256 public productCount = 0;\r\n\r\n    event ProductUpdated(\r\n        uint256 indexed id,\r\n        string locationOfUpdate,\r\n        uint256 price,\r\n        string certification,\r\n        address updatedBy,\r\n        uint256 dateOfUpdate\r\n    );\r\n\r\n    event ProductRegistered(\r\n        uint256 indexed id,\r\n        string indexed productName,\r\n        string productDescription,\r\n        uint256 dateOfRegistration,\r\n        string locationOfRegistration,\r\n        string batch,\r\n        uint256 price,\r\n        string certification\r\n    );\r\n\r\n    constructor() public {\r\n        registerProduct(\r\n            \"Product1\",\r\n            \"Product Description 1\",\r\n            \"Location1\",\r\n            \"Batch1\",\r\n            100,\r\n            \"certification1\",\r\n            \"Manufacturer1\",\r\n            \"Distributor1\",\r\n            \"Retailer1\"\r\n        );\r\n\r\n        registerProduct(\r\n            \"Product2\",\r\n            \"Product Description 2\",\r\n            \"Location2\",\r\n            \"Batch2\",\r\n            200,\r\n            \"certification2\",\r\n            \"Manufacturer2\",\r\n            \"Distributor2\",\r\n            \"Retailer2\"\r\n        );\r\n    }\r\n\r\n    function registerProduct(\r\n        string memory productName,\r\n        string memory productDescription,\r\n        string memory locationOfRegistration,\r\n        string memory batch,\r\n        uint256 price,\r\n        string memory certification,\r\n        string memory manufacturer,\r\n        string memory distributor,\r\n        string memory retailer\r\n    ) public {\r\n        require(bytes(productName).length > 0, \"Product name is required\");\r\n        require(\r\n            bytes(productDescription).length > 0,\r\n            \"Product description is required\"\r\n        );\r\n        require(\r\n            bytes(locationOfRegistration).length > 0,\r\n            \"Location is required\"\r\n        );\r\n        require(\r\n            bytes(manufacturer).length > 0 || bytes(distributor).length > 0,\r\n            \"Provider name is required for registration\"\r\n        );\r\n        require(bytes(batch).length > 0, \"Batch is required\");\r\n\r\n        productCount++;\r\n\r\n        string[] memory locationOfRegistrations = new string[](1);\r\n        locationOfRegistrations[0] = locationOfRegistration;\r\n\r\n        uint256[] memory prices = new uint256[](1);\r\n        prices[0] = price;\r\n\r\n        string[] memory certifications = new string[](1);\r\n        certifications[0] = certification;\r\n\r\n        address[] memory owners = new address[](1);\r\n        owners[0] = msg.sender;\r\n\r\n        products[productCount] = Product(\r\n            productCount,\r\n            productName,\r\n            productDescription,\r\n            block.timestamp,\r\n            locationOfRegistrations,\r\n            new string[](0), // added empty list for locationsOfUpdates\r\n            0, // added dateOfUpdate initialization\r\n            batch,\r\n            prices,\r\n            certifications,\r\n            manufacturer,\r\n            distributor,\r\n            retailer,\r\n            owners,\r\n            true\r\n        );\r\n        emit ProductRegistered(\r\n            productCount,\r\n            productName,\r\n            productDescription,\r\n            block.timestamp,\r\n            locationOfRegistration,\r\n            batch,\r\n            price,\r\n            certification\r\n        );\r\n    }\r\n\r\n    function updateProduct(\r\n        uint256 id,\r\n        string memory locationOfUpdate,\r\n        uint256 price,\r\n        string memory certification,\r\n        string memory distributor,\r\n        string memory retailer\r\n    ) public {\r\n        require(products[id].isRegistered, \"Product not found\");\r\n        require(\r\n            bytes(distributor).length > 0 || bytes(retailer).length > 0,\r\n            \"Provider is required for update\"\r\n        );\r\n\r\n        products[id].locationsOfUpdates.push(locationOfUpdate); // new update location\r\n        products[id].dateOfUpdate = block.timestamp; // new update date\r\n        if (bytes(distributor).length > 0) {\r\n            products[id].distributor = distributor;\r\n        }\r\n        if (bytes(retailer).length > 0) {\r\n            products[id].retailer = retailer;\r\n        }\r\n        if (price > 0) {\r\n            products[id].prices.push(price);\r\n        }\r\n\r\n        products[id].owners.push(msg.sender);\r\n        products[id].certifications.push(certification);\r\n\r\n        lastUpdatedBy[id] = msg.sender;\r\n\r\n        emit ProductUpdated(\r\n            id,\r\n            locationOfUpdate,\r\n            price,\r\n            certification,\r\n            lastUpdatedBy[id],\r\n            block.timestamp\r\n        );\r\n    }\r\n\r\n    //for \"Add me as owner\" button\r\n    function addOwner(uint256 id) public {\r\n        require(products[id].isRegistered, \"Product not found\");\r\n        products[id].owners.push(msg.sender);\r\n    }\r\n\r\n    function getProduct(uint256 id) public view returns (Product memory) {\r\n        require(products[id].isRegistered, \"Product not found\");\r\n        return products[id];\r\n    }\r\n}\r\n",
  "sourcePath": "C:\\Users\\tdgal\\OneDrive\\Desktop\\Licentacod\\Licenta_WebSite\\ProductTracking\\smart-contracts\\contracts\\ProductRegistration.sol",
  "compiler": {
    "name": "solc",
    "version": "0.5.16+commit.9c3226ce.Emscripten.clang"
  },
  "schemaVersion": "3.4.14",
  "updatedAt": "2023-06-15T11:48:33.431Z",
  "networkType": "ethereum",
  "devdoc": {
    "methods": {}
  },
  "userdoc": {
    "methods": {}
  }
}