{
  "contractName": "ProductRegistration",
  "abi": [
    {
      "inputs": [],
      "payable": false,
      "stateMutability": "nonpayable",
      "type": "constructor"
    },
    {
      "anonymous": false,
      "inputs": [
        {
          "indexed": true,
          "internalType": "uint256",
          "name": "id",
          "type": "uint256"
        },
        {
          "indexed": true,
          "internalType": "string",
          "name": "productName",
          "type": "string"
        },
        {
          "indexed": false,
          "internalType": "string",
          "name": "productDescription",
          "type": "string"
        },
        {
          "indexed": false,
          "internalType": "uint256",
          "name": "dateOfRegistration",
          "type": "uint256"
        },
        {
          "indexed": false,
          "internalType": "string",
          "name": "geoLocation",
          "type": "string"
        },
        {
          "indexed": false,
          "internalType": "string",
          "name": "batch",
          "type": "string"
        },
        {
          "indexed": false,
          "internalType": "uint256",
          "name": "price",
          "type": "uint256"
        },
        {
          "indexed": false,
          "internalType": "string[]",
          "name": "certifications",
          "type": "string[]"
        }
      ],
      "name": "ProductRegistered",
      "type": "event"
    },
    {
      "constant": true,
      "inputs": [],
      "name": "productCount",
      "outputs": [
        {
          "internalType": "uint256",
          "name": "",
          "type": "uint256"
        }
      ],
      "payable": false,
      "stateMutability": "view",
      "type": "function"
    },
    {
      "constant": true,
      "inputs": [
        {
          "internalType": "uint256",
          "name": "",
          "type": "uint256"
        }
      ],
      "name": "products",
      "outputs": [
        {
          "internalType": "uint256",
          "name": "id",
          "type": "uint256"
        },
        {
          "internalType": "string",
          "name": "productName",
          "type": "string"
        },
        {
          "internalType": "string",
          "name": "productDescription",
          "type": "string"
        },
        {
          "internalType": "uint256",
          "name": "dateOfRegistration",
          "type": "uint256"
        },
        {
          "internalType": "string",
          "name": "geoLocation",
          "type": "string"
        },
        {
          "internalType": "string",
          "name": "batch",
          "type": "string"
        },
        {
          "internalType": "uint256",
          "name": "price",
          "type": "uint256"
        },
        {
          "internalType": "bool",
          "name": "isRegistered",
          "type": "bool"
        }
      ],
      "payable": false,
      "stateMutability": "view",
      "type": "function"
    },
    {
      "constant": false,
      "inputs": [
        {
          "internalType": "string",
          "name": "productName",
          "type": "string"
        },
        {
          "internalType": "string",
          "name": "productDescription",
          "type": "string"
        },
        {
          "internalType": "string",
          "name": "geoLocation",
          "type": "string"
        },
        {
          "internalType": "string",
          "name": "batch",
          "type": "string"
        },
        {
          "internalType": "uint256",
          "name": "price",
          "type": "uint256"
        },
        {
          "internalType": "string[]",
          "name": "certifications",
          "type": "string[]"
        }
      ],
      "name": "registerProduct",
      "outputs": [],
      "payable": false,
      "stateMutability": "nonpayable",
      "type": "function"
    },
    {
      "constant": true,
      "inputs": [
        {
          "internalType": "uint256",
          "name": "id",
          "type": "uint256"
        }
      ],
      "name": "getProduct",
      "outputs": [
        {
          "components": [
            {
              "internalType": "uint256",
              "name": "id",
              "type": "uint256"
            },
            {
              "internalType": "string",
              "name": "productName",
              "type": "string"
            },
            {
              "internalType": "string",
              "name": "productDescription",
              "type": "string"
            },
            {
              "internalType": "uint256",
              "name": "dateOfRegistration",
              "type": "uint256"
            },
            {
              "internalType": "string",
              "name": "geoLocation",
              "type": "string"
            },
            {
              "internalType": "string",
              "name": "batch",
              "type": "string"
            },
            {
              "internalType": "uint256",
              "name": "price",
              "type": "uint256"
            },
            {
              "internalType": "string[]",
              "name": "certifications",
              "type": "string[]"
            },
            {
              "internalType": "bool",
              "name": "isRegistered",
              "type": "bool"
            }
          ],
          "internalType": "struct ProductRegistration.Product",
          "name": "",
          "type": "tuple"
        }
      ],
      "payable": false,
      "stateMutability": "view",
      "type": "function"
    }
  ],
  "bytecode": "0x608060405260006001553480156200001657600080fd5b506040805160028082526060828101909352816020015b60608152602001906001900390816200002d5790505090506040518060400160405280600e81526020016d43657274696669636174696f6e3160901b815250816000815181106200007a57fe5b60200260200101819052506040518060400160405280600e81526020016d21b2b93a34b334b1b0ba34b7b71960911b81525081600181518110620000ba57fe5b6020026020010181905250620001706040518060400160405280600881526020016750726f647563743160c01b8152506040518060400160405280601581526020017f50726f64756374204465736372697074696f6e20310000000000000000000000815250604051806040016040528060098152602001684c6f636174696f6e3160b81b8152506040518060400160405280600681526020016542617463683160d01b815250606486620002d160201b60201c565b6040805160028082526060828101909352816020015b6060815260200190600190039081620001865790505090506040518060400160405280600e81526020016d43657274696669636174696f6e3360901b81525081600081518110620001d357fe5b60200260200101819052506040518060400160405280600e81526020016d10d95c9d1a599a58d85d1a5bdb8d60921b815250816001815181106200021357fe5b6020026020010181905250620002c960405180604001604052806008815260200167283937b23ab1ba1960c11b8152506040518060400160405280601581526020017f50726f64756374204465736372697074696f6e20320000000000000000000000815250604051806040016040528060098152602001682637b1b0ba34b7b71960b91b815250604051806040016040528060068152602001652130ba31b41960d11b81525060c886620002d160201b60201c565b50506200091d565b6000865111620002fe5760405162461bcd60e51b8152600401620002f5906200088c565b60405180910390fd5b6000855111620003225760405162461bcd60e51b8152600401620002f590620008a4565b6000835111620003465760405162461bcd60e51b8152600401620002f590620008b6565b600180548101808255604080516101208101825282815260208082018b81528284018b9052426060840152608083018a905260a0830189905260c0830188905260e083018790526101008301869052600094855284825292909320815181559151805191949293620003be93850192910190620004cd565b5060408201518051620003dc916002840191602090910190620004cd565b50606082015160038201556080820151805162000404916004840191602090910190620004cd565b5060a0820151805162000422916005840191602090910190620004cd565b5060c0820151600682015560e082015180516200044a91600784019160209091019062000552565b5061010091909101516008909101805460ff191691151591909117905560405162000477908790620007ff565b60405180910390206001547f905a544ae50b7754b8f8893734927226aab6442d2268c84df2253e01549a91b9874288888888604051620004bd969594939291906200080d565b60405180910390a3505050505050565b828054600181600116156101000203166002900490600052602060002090601f016020900481019282601f106200051057805160ff191683800117855562000540565b8280016001018555821562000540579182015b828111156200054057825182559160200191906001019062000523565b506200054e929150620005b2565b5090565b828054828255906000526020600020908101928215620005a4579160200282015b82811115620005a4578251805162000593918491602090910190620004cd565b509160200191906001019062000573565b506200054e929150620005d2565b620005cf91905b808211156200054e5760008155600101620005b9565b90565b620005cf91905b808211156200054e576000620005f08282620005fa565b50600101620005d9565b50805460018160011615610100020316600290046000825580601f1062000622575062000642565b601f016020900490600052602060002090810190620006429190620005b2565b50565b6000620006538383620006d4565b9392505050565b60006200066782620008ce565b620006738185620008d2565b9350836020820285016200068785620008c8565b8060005b85811015620006c75784840389528151620006a7858262000645565b9450620006b483620008c8565b60209a909a01999250506001016200068b565b5091979650505050505050565b6000620006e182620008ce565b620006ed8185620008d2565b9350620006ff818560208601620008e0565b6200070a8162000913565b9093019392505050565b60006200072182620008ce565b6200072d8185620008db565b93506200073f818560208601620008e0565b9290920192915050565b600062000758601883620008d2565b7f50726f64756374206e616d652069732072657175697265640000000000000000815260200192915050565b600062000793601f83620008d2565b7f50726f64756374206465736372697074696f6e20697320726571756972656400815260200192915050565b6000620007ce601183620008d2565b7010985d18da081a5cc81c995c5d5a5c9959607a1b815260200192915050565b620007f981620005cf565b82525050565b600062000653828462000714565b60c08082528101620008208189620006d4565b9050620008316020830188620007ee565b8181036040830152620008458187620006d4565b905081810360608301526200085b8186620006d4565b90506200086c6080830185620007ee565b81810360a08301526200088081846200065a565b98975050505050505050565b602080825281016200089e8162000749565b92915050565b602080825281016200089e8162000784565b602080825281016200089e81620007bf565b60200190565b5190565b90815260200190565b919050565b60005b83811015620008fd578181015183820152602001620008e3565b838111156200090d576000848401525b50505050565b601f01601f191690565b611221806200092d6000396000f3fe608060405234801561001057600080fd5b506004361061004c5760003560e01c80637acc0b201461005157806399e89ce614610081578063b9db15b414610096578063e0f6ef87146100b6575b600080fd5b61006461005f366004610c59565b6100cb565b604051610078989796959493929190611064565b60405180910390f35b61009461008f366004610b5b565b610338565b005b6100a96100a4366004610c59565b61051d565b6040516100789190611045565b6100be6108dd565b6040516100789190611056565b600060208181529181526040908190208054600180830180548551600293821615610100026000190190911692909204601f81018790048702830187019095528482529194929390928301828280156101655780601f1061013a57610100808354040283529160200191610165565b820191906000526020600020905b81548152906001019060200180831161014857829003601f168201915b50505060028085018054604080516020601f60001961010060018716150201909416959095049283018590048502810185019091528181529596959450909250908301828280156101f75780601f106101cc576101008083540402835291602001916101f7565b820191906000526020600020905b8154815290600101906020018083116101da57829003601f168201915b50505050600383015460048401805460408051602060026001851615610100026000190190941693909304601f8101849004840282018401909252818152959693959394509083018282801561028e5780601f106102635761010080835404028352916020019161028e565b820191906000526020600020905b81548152906001019060200180831161027157829003601f168201915b5050505060058301805460408051602060026001851615610100026000190190941693909304601f810184900484028201840190925281815294959493509083018282801561031e5780601f106102f35761010080835404028352916020019161031e565b820191906000526020600020905b81548152906001019060200180831161030157829003601f168201915b50505050600683015460089093015491929160ff16905088565b60008651116103625760405162461bcd60e51b815260040161035990611005565b60405180910390fd5b60008551116103835760405162461bcd60e51b815260040161035990611025565b60008351116103a45760405162461bcd60e51b815260040161035990611035565b600180548101808255604080516101208101825282815260208082018b81528284018b9052426060840152608083018a905260a0830189905260c0830188905260e08301879052610100830186905260009485528482529290932081518155915180519194929361041a938501929101906108e3565b50604082015180516104369160028401916020909101906108e3565b50606082015160038201556080820151805161045c9160048401916020909101906108e3565b5060a082015180516104789160058401916020909101906108e3565b5060c0820151600682015560e0820151805161049e916007840191602090910190610961565b5061010091909101516008909101805460ff19169115159190911790556040516104c9908790610f86565b60405180910390206001547f905a544ae50b7754b8f8893734927226aab6442d2268c84df2253e01549a91b987428888888860405161050d96959493929190610f92565b60405180910390a3505050505050565b6105256109ba565b60008281526020819052604090206008015460ff166105565760405162461bcd60e51b815260040161035990611015565b6000808381526020019081526020016000206040518061012001604052908160008201548152602001600182018054600181600116156101000203166002900480601f0160208091040260200160405190810160405280929190818152602001828054600181600116156101000203166002900480156106175780601f106105ec57610100808354040283529160200191610617565b820191906000526020600020905b8154815290600101906020018083116105fa57829003601f168201915b5050509183525050600282810180546040805160206001841615610100026000190190931694909404601f810183900483028501830190915280845293810193908301828280156106a95780601f1061067e576101008083540402835291602001916106a9565b820191906000526020600020905b81548152906001019060200180831161068c57829003601f168201915b5050509183525050600382015460208083019190915260048301805460408051601f600260001961010060018716150201909416939093049283018590048502810185018252828152940193928301828280156107475780601f1061071c57610100808354040283529160200191610747565b820191906000526020600020905b81548152906001019060200180831161072a57829003601f168201915b505050918352505060058201805460408051602060026001851615610100026000190190941693909304601f81018490048402820184019092528181529382019392918301828280156107db5780601f106107b0576101008083540402835291602001916107db565b820191906000526020600020905b8154815290600101906020018083116107be57829003601f168201915b505050505081526020016006820154815260200160078201805480602002602001604051908101604052809291908181526020016000905b828210156108be5760008481526020908190208301805460408051601f60026000196101006001871615020190941693909304928301859004850281018501909152818152928301828280156108aa5780601f1061087f576101008083540402835291602001916108aa565b820191906000526020600020905b81548152906001019060200180831161088d57829003601f168201915b505050505081526020019060010190610813565b505050908252506008919091015460ff16151560209091015292915050565b60015481565b828054600181600116156101000203166002900490600052602060002090601f016020900481019282601f1061092457805160ff1916838001178555610951565b82800160010185558215610951579182015b82811115610951578251825591602001919060010190610936565b5061095d929150610a08565b5090565b8280548282559060005260206000209081019282156109ae579160200282015b828111156109ae578251805161099e9184916020909101906108e3565b5091602001919060010190610981565b5061095d929150610a25565b60405180610120016040528060008152602001606081526020016060815260200160008152602001606081526020016060815260200160008152602001606081526020016000151581525090565b610a2291905b8082111561095d5760008155600101610a0e565b90565b610a2291905b8082111561095d576000610a3f8282610a48565b50600101610a2b565b50805460018160011615610100020316600290046000825580601f10610a6e5750610a8c565b601f016020900490600052602060002090810190610a8c9190610a08565b50565b600082601f830112610aa057600080fd5b8135610ab3610aae8261111e565b6110f7565b81815260209384019390925082018360005b83811015610af15781358601610adb8882610afb565b8452506020928301929190910190600101610ac5565b5050505092915050565b600082601f830112610b0c57600080fd5b8135610b1a610aae8261113f565b91508082526020830160208301858383011115610b3657600080fd5b610b41838284611184565b50505092915050565b8035610b55816111ca565b92915050565b60008060008060008060c08789031215610b7457600080fd5b863567ffffffffffffffff811115610b8b57600080fd5b610b9789828a01610afb565b965050602087013567ffffffffffffffff811115610bb457600080fd5b610bc089828a01610afb565b955050604087013567ffffffffffffffff811115610bdd57600080fd5b610be989828a01610afb565b945050606087013567ffffffffffffffff811115610c0657600080fd5b610c1289828a01610afb565b9350506080610c2389828a01610b4a565b92505060a087013567ffffffffffffffff811115610c4057600080fd5b610c4c89828a01610a8f565b9150509295509295509295565b600060208284031215610c6b57600080fd5b6000610c778484610b4a565b949350505050565b6000610c8b8383610d70565b9392505050565b6000610c9d8261116d565b610ca78185611171565b935083602082028501610cb985611167565b8060005b85811015610cf35784840389528151610cd68582610c7f565b9450610ce183611167565b60209a909a0199925050600101610cbd565b5091979650505050505050565b6000610d0b8261116d565b610d158185611171565b935083602082028501610d2785611167565b8060005b85811015610cf35784840389528151610d448582610c7f565b9450610d4f83611167565b60209a909a0199925050600101610d2b565b610d6a8161117f565b82525050565b6000610d7b8261116d565b610d858185611171565b9350610d95818560208601611190565b610d9e816111c0565b9093019392505050565b6000610db38261116d565b610dbd818561117a565b9350610dcd818560208601611190565b9290920192915050565b6000610de4601883611171565b7f50726f64756374206e616d652069732072657175697265640000000000000000815260200192915050565b6000610e1d601183611171565b70141c9bd91d58dd081b9bdd08199bdd5b99607a1b815260200192915050565b6000610e4a601f83611171565b7f50726f64756374206465736372697074696f6e20697320726571756972656400815260200192915050565b6000610e83601183611171565b7010985d18da081a5cc81c995c5d5a5c9959607a1b815260200192915050565b8051600090610120840190610eb88582610f7d565b5060208301518482036020860152610ed08282610d70565b91505060408301518482036040860152610eea8282610d70565b9150506060830151610eff6060860182610f7d565b5060808301518482036080860152610f178282610d70565b91505060a083015184820360a0860152610f318282610d70565b91505060c0830151610f4660c0860182610f7d565b5060e083015184820360e0860152610f5e8282610d00565b915050610100830151610f75610100860182610d61565b509392505050565b610d6a81610a22565b6000610c8b8284610da8565b60c08082528101610fa38189610d70565b9050610fb26020830188610f7d565b8181036040830152610fc48187610d70565b90508181036060830152610fd88186610d70565b9050610fe76080830185610f7d565b81810360a0830152610ff98184610c92565b98975050505050505050565b60208082528101610b5581610dd7565b60208082528101610b5581610e10565b60208082528101610b5581610e3d565b60208082528101610b5581610e76565b60208082528101610c8b8184610ea3565b60208101610b558284610f7d565b6101008101611073828b610f7d565b8181036020830152611085818a610d70565b905081810360408301526110998189610d70565b90506110a86060830188610f7d565b81810360808301526110ba8187610d70565b905081810360a08301526110ce8186610d70565b90506110dd60c0830185610f7d565b6110ea60e0830184610d61565b9998505050505050505050565b60405181810167ffffffffffffffff8111828210171561111657600080fd5b604052919050565b600067ffffffffffffffff82111561113557600080fd5b5060209081020190565b600067ffffffffffffffff82111561115657600080fd5b506020601f91909101601f19160190565b60200190565b5190565b90815260200190565b919050565b151590565b82818337506000910152565b60005b838110156111ab578181015183820152602001611193565b838111156111ba576000848401525b50505050565b601f01601f191690565b6111d381610a22565b8114610a8c57600080fdfea365627a7a7231582029ac1c3b24596b1e1bc67ba8c64e4eda04bddccc8a742a3da22218d34daf41686c6578706572696d656e74616cf564736f6c63430005100040",
  "source": "// SPDX-License-Identifier: MIT\r\n\r\npragma solidity ^0.5.9;\r\npragma experimental ABIEncoderV2;\r\n\r\ncontract ProductRegistration {\r\n    struct Product {\r\n        uint256 id;\r\n        string productName;\r\n        string productDescription;\r\n        uint256 dateOfRegistration;\r\n        string geoLocation;\r\n        string batch;\r\n        uint256 price;\r\n        string[] certifications;\r\n        bool isRegistered;\r\n    }\r\n\r\n    mapping(uint256 => Product) public products;\r\n    uint256 public productCount = 0;\r\n\r\n    event ProductRegistered(\r\n        uint256 indexed id,\r\n        string indexed productName,\r\n        string productDescription,\r\n        uint256 dateOfRegistration,\r\n        string geoLocation,\r\n        string batch,\r\n        uint256 price,\r\n        string[] certifications\r\n    );\r\n\r\n    constructor() public {\r\n        string[] memory certifications1 = new string[](2);\r\n        certifications1[0] = \"Certification1\";\r\n        certifications1[1] = \"Certification2\";\r\n\r\n        registerProduct(\r\n            \"Product1\",\r\n            \"Product Description 1\",\r\n            \"Location1\",\r\n            \"Batch1\",\r\n            100,\r\n            certifications1\r\n        );\r\n\r\n        string[] memory certifications2 = new string[](2);\r\n        certifications2[0] = \"Certification3\";\r\n        certifications2[1] = \"Certification4\";\r\n\r\n        registerProduct(\r\n            \"Product2\",\r\n            \"Product Description 2\",\r\n            \"Location2\",\r\n            \"Batch2\",\r\n            200,\r\n            certifications2\r\n        );\r\n    }\r\n\r\n    function registerProduct(\r\n        string memory productName,\r\n        string memory productDescription,\r\n        string memory geoLocation,\r\n        string memory batch,\r\n        uint256 price,\r\n        string[] memory certifications\r\n    ) public {\r\n        require(bytes(productName).length > 0, \"Product name is required\");\r\n        require(\r\n            bytes(productDescription).length > 0,\r\n            \"Product description is required\"\r\n        );\r\n        require(bytes(batch).length > 0, \"Batch is required\");\r\n\r\n        productCount++;\r\n        products[productCount] = Product(\r\n            productCount,\r\n            productName,\r\n            productDescription,\r\n            block.timestamp,\r\n            geoLocation,\r\n            batch,\r\n            price,\r\n            certifications,\r\n            true\r\n        );\r\n        emit ProductRegistered(\r\n            productCount,\r\n            productName,\r\n            productDescription,\r\n            block.timestamp,\r\n            geoLocation,\r\n            batch,\r\n            price,\r\n            certifications\r\n        );\r\n    }\r\n\r\n    function getProduct(uint256 id) public view returns (Product memory) {\r\n        require(products[id].isRegistered, \"Product not found\");\r\n        return products[id];\r\n    }\r\n}\r\n",
  "sourcePath": "C:\\Users\\tdgal\\OneDrive\\Desktop\\Licentacod\\Licenta_WebSite\\ProductTracking\\smart-contracts\\contracts\\ProductRegistration.sol",
  "compiler": {
    "name": "solc",
    "version": "0.5.16+commit.9c3226ce.Emscripten.clang"
  },
  "schemaVersion": "3.4.14",
  "updatedAt": "2023-06-06T14:35:30.467Z",
  "devdoc": {
    "methods": {}
  },
  "userdoc": {
    "methods": {}
  }
}