{
  "contractName": "ProductRegistration",
  "abi": [
    {
      "inputs": [],
      "payable": false,
      "stateMutability": "nonpayable",
      "type": "constructor"
    },
    {
      "anonymous": false,
      "inputs": [
        {
          "indexed": true,
          "internalType": "uint256",
          "name": "id",
          "type": "uint256"
        },
        {
          "indexed": true,
          "internalType": "string",
          "name": "productName",
          "type": "string"
        },
        {
          "indexed": false,
          "internalType": "string",
          "name": "productDescription",
          "type": "string"
        },
        {
          "indexed": false,
          "internalType": "uint256",
          "name": "dateOfRegistration",
          "type": "uint256"
        },
        {
          "indexed": false,
          "internalType": "string",
          "name": "geoLocation",
          "type": "string"
        },
        {
          "indexed": false,
          "internalType": "string",
          "name": "batch",
          "type": "string"
        },
        {
          "indexed": false,
          "internalType": "uint256",
          "name": "price",
          "type": "uint256"
        },
        {
          "indexed": false,
          "internalType": "string[]",
          "name": "certifications",
          "type": "string[]"
        }
      ],
      "name": "ProductRegistered",
      "type": "event"
    },
    {
      "constant": true,
      "inputs": [],
      "name": "productCount",
      "outputs": [
        {
          "internalType": "uint256",
          "name": "",
          "type": "uint256"
        }
      ],
      "payable": false,
      "stateMutability": "view",
      "type": "function"
    },
    {
      "constant": true,
      "inputs": [
        {
          "internalType": "uint256",
          "name": "",
          "type": "uint256"
        }
      ],
      "name": "products",
      "outputs": [
        {
          "internalType": "uint256",
          "name": "id",
          "type": "uint256"
        },
        {
          "internalType": "string",
          "name": "productName",
          "type": "string"
        },
        {
          "internalType": "string",
          "name": "productDescription",
          "type": "string"
        },
        {
          "internalType": "uint256",
          "name": "dateOfRegistration",
          "type": "uint256"
        },
        {
          "internalType": "string",
          "name": "geoLocation",
          "type": "string"
        },
        {
          "internalType": "string",
          "name": "batch",
          "type": "string"
        },
        {
          "internalType": "uint256",
          "name": "price",
          "type": "uint256"
        },
        {
          "internalType": "bool",
          "name": "isRegistered",
          "type": "bool"
        }
      ],
      "payable": false,
      "stateMutability": "view",
      "type": "function"
    },
    {
      "constant": false,
      "inputs": [
        {
          "internalType": "string",
          "name": "productName",
          "type": "string"
        },
        {
          "internalType": "string",
          "name": "productDescription",
          "type": "string"
        },
        {
          "internalType": "string",
          "name": "geoLocation",
          "type": "string"
        },
        {
          "internalType": "string",
          "name": "batch",
          "type": "string"
        },
        {
          "internalType": "uint256",
          "name": "price",
          "type": "uint256"
        },
        {
          "internalType": "string[]",
          "name": "certifications",
          "type": "string[]"
        }
      ],
      "name": "registerProduct",
      "outputs": [],
      "payable": false,
      "stateMutability": "nonpayable",
      "type": "function"
    },
    {
      "constant": true,
      "inputs": [
        {
          "internalType": "uint256",
          "name": "id",
          "type": "uint256"
        }
      ],
      "name": "getProduct",
      "outputs": [
        {
          "components": [
            {
              "internalType": "uint256",
              "name": "id",
              "type": "uint256"
            },
            {
              "internalType": "string",
              "name": "productName",
              "type": "string"
            },
            {
              "internalType": "string",
              "name": "productDescription",
              "type": "string"
            },
            {
              "internalType": "uint256",
              "name": "dateOfRegistration",
              "type": "uint256"
            },
            {
              "internalType": "string",
              "name": "geoLocation",
              "type": "string"
            },
            {
              "internalType": "string",
              "name": "batch",
              "type": "string"
            },
            {
              "internalType": "uint256",
              "name": "price",
              "type": "uint256"
            },
            {
              "internalType": "string[]",
              "name": "certifications",
              "type": "string[]"
            },
            {
              "internalType": "bool",
              "name": "isRegistered",
              "type": "bool"
            }
          ],
          "internalType": "struct ProductRegistration.Product",
          "name": "",
          "type": "tuple"
        }
      ],
      "payable": false,
      "stateMutability": "view",
      "type": "function"
    }
  ],
  "bytecode": "0x608060405260006001553480156200001657600080fd5b506040805160028082526060828101909352816020015b60608152602001906001900390816200002d5790505090506040518060400160405280600e81526020016d43657274696669636174696f6e3160901b815250816000815181106200007a57fe5b60200260200101819052506040518060400160405280600e81526020016d21b2b93a34b334b1b0ba34b7b71960911b81525081600181518110620000ba57fe5b6020026020010181905250620001706040518060400160405280600881526020016750726f647563743160c01b8152506040518060400160405280601581526020017f50726f64756374204465736372697074696f6e20310000000000000000000000815250604051806040016040528060098152602001684c6f636174696f6e3160b81b8152506040518060400160405280600681526020016542617463683160d01b815250606486620002d160201b60201c565b6040805160028082526060828101909352816020015b6060815260200190600190039081620001865790505090506040518060400160405280600e81526020016d43657274696669636174696f6e3360901b81525081600081518110620001d357fe5b60200260200101819052506040518060400160405280600e81526020016d10d95c9d1a599a58d85d1a5bdb8d60921b815250816001815181106200021357fe5b6020026020010181905250620002c960405180604001604052806008815260200167283937b23ab1ba1960c11b8152506040518060400160405280601581526020017f50726f64756374204465736372697074696f6e20320000000000000000000000815250604051806040016040528060098152602001682637b1b0ba34b7b71960b91b815250604051806040016040528060068152602001652130ba31b41960d11b81525060c886620002d160201b60201c565b5050620008ba565b6000865111620002fe5760405162461bcd60e51b8152600401620002f5906200083b565b60405180910390fd5b6101f485511115620003245760405162461bcd60e51b8152600401620002f59062000853565b600180548101808255604080516101208101825282815260208082018b81528284018b9052426060840152608083018a905260a0830189905260c0830188905260e0830187905261010083018690526000948552848252929093208151815591518051919492936200039c93850192910190620004ab565b5060408201518051620003ba916002840191602090910190620004ab565b506060820151600382015560808201518051620003e2916004840191602090910190620004ab565b5060a0820151805162000400916005840191602090910190620004ab565b5060c0820151600682015560e082015180516200042891600784019160209091019062000530565b5061010091909101516008909101805460ff191691151591909117905560405162000455908790620007ae565b60405180910390206001547f905a544ae50b7754b8f8893734927226aab6442d2268c84df2253e01549a91b98742888888886040516200049b96959493929190620007bc565b60405180910390a3505050505050565b828054600181600116156101000203166002900490600052602060002090601f016020900481019282601f10620004ee57805160ff19168380011785556200051e565b828001600101855582156200051e579182015b828111156200051e57825182559160200191906001019062000501565b506200052c92915062000590565b5090565b82805482825590600052602060002090810192821562000582579160200282015b8281111562000582578251805162000571918491602090910190620004ab565b509160200191906001019062000551565b506200052c929150620005b0565b620005ad91905b808211156200052c576000815560010162000597565b90565b620005ad91905b808211156200052c576000620005ce8282620005d8565b50600101620005b7565b50805460018160011615610100020316600290046000825580601f1062000600575062000620565b601f01602090049060005260206000209081019062000620919062000590565b50565b6000620006318383620006b2565b9392505050565b600062000645826200086b565b6200065181856200086f565b935083602082028501620006658562000865565b8060005b85811015620006a5578484038952815162000685858262000623565b9450620006928362000865565b60209a909a019992505060010162000669565b5091979650505050505050565b6000620006bf826200086b565b620006cb81856200086f565b9350620006dd8185602086016200087d565b620006e881620008b0565b9093019392505050565b6000620006ff826200086b565b6200070b818562000878565b93506200071d8185602086016200087d565b9290920192915050565b6000620007366018836200086f565b7f50726f64756374206e616d652069732072657175697265640000000000000000815260200192915050565b600062000771601f836200086f565b7f50726f64756374206465736372697074696f6e20697320746f6f206c6f6e6700815260200192915050565b620007a881620005ad565b82525050565b6000620006318284620006f2565b60c08082528101620007cf8189620006b2565b9050620007e060208301886200079d565b8181036040830152620007f48187620006b2565b905081810360608301526200080a8186620006b2565b90506200081b60808301856200079d565b81810360a08301526200082f818462000638565b98975050505050505050565b602080825281016200084d8162000727565b92915050565b602080825281016200084d8162000762565b60200190565b5190565b90815260200190565b919050565b60005b838110156200089a57818101518382015260200162000880565b83811115620008aa576000848401525b50505050565b601f01601f191690565b6111c580620008ca6000396000f3fe608060405234801561001057600080fd5b506004361061004c5760003560e01c80637acc0b201461005157806399e89ce614610081578063b9db15b414610096578063e0f6ef87146100b6575b600080fd5b61006461005f366004610c3a565b6100cb565b604051610078989796959493929190611008565b60405180910390f35b61009461008f366004610b3c565b610338565b005b6100a96100a4366004610c3a565b6104fe565b6040516100789190610fe9565b6100be6108be565b6040516100789190610ffa565b600060208181529181526040908190208054600180830180548551600293821615610100026000190190911692909204601f81018790048702830187019095528482529194929390928301828280156101655780601f1061013a57610100808354040283529160200191610165565b820191906000526020600020905b81548152906001019060200180831161014857829003601f168201915b50505060028085018054604080516020601f60001961010060018716150201909416959095049283018590048502810185019091528181529596959450909250908301828280156101f75780601f106101cc576101008083540402835291602001916101f7565b820191906000526020600020905b8154815290600101906020018083116101da57829003601f168201915b50505050600383015460048401805460408051602060026001851615610100026000190190941693909304601f8101849004840282018401909252818152959693959394509083018282801561028e5780601f106102635761010080835404028352916020019161028e565b820191906000526020600020905b81548152906001019060200180831161027157829003601f168201915b5050505060058301805460408051602060026001851615610100026000190190941693909304601f810184900484028201840190925281815294959493509083018282801561031e5780601f106102f35761010080835404028352916020019161031e565b820191906000526020600020905b81548152906001019060200180831161030157829003601f168201915b50505050600683015460089093015491929160ff16905088565b60008651116103625760405162461bcd60e51b815260040161035990610fb9565b60405180910390fd5b6101f4855111156103855760405162461bcd60e51b815260040161035990610fd9565b600180548101808255604080516101208101825282815260208082018b81528284018b9052426060840152608083018a905260a0830189905260c0830188905260e0830187905261010083018690526000948552848252929093208151815591518051919492936103fb938501929101906108c4565b50604082015180516104179160028401916020909101906108c4565b50606082015160038201556080820151805161043d9160048401916020909101906108c4565b5060a082015180516104599160058401916020909101906108c4565b5060c0820151600682015560e0820151805161047f916007840191602090910190610942565b5061010091909101516008909101805460ff19169115159190911790556040516104aa908790610f3a565b60405180910390206001547f905a544ae50b7754b8f8893734927226aab6442d2268c84df2253e01549a91b98742888888886040516104ee96959493929190610f46565b60405180910390a3505050505050565b61050661099b565b60008281526020819052604090206008015460ff166105375760405162461bcd60e51b815260040161035990610fc9565b6000808381526020019081526020016000206040518061012001604052908160008201548152602001600182018054600181600116156101000203166002900480601f0160208091040260200160405190810160405280929190818152602001828054600181600116156101000203166002900480156105f85780601f106105cd576101008083540402835291602001916105f8565b820191906000526020600020905b8154815290600101906020018083116105db57829003601f168201915b5050509183525050600282810180546040805160206001841615610100026000190190931694909404601f8101839004830285018301909152808452938101939083018282801561068a5780601f1061065f5761010080835404028352916020019161068a565b820191906000526020600020905b81548152906001019060200180831161066d57829003601f168201915b5050509183525050600382015460208083019190915260048301805460408051601f600260001961010060018716150201909416939093049283018590048502810185018252828152940193928301828280156107285780601f106106fd57610100808354040283529160200191610728565b820191906000526020600020905b81548152906001019060200180831161070b57829003601f168201915b505050918352505060058201805460408051602060026001851615610100026000190190941693909304601f81018490048402820184019092528181529382019392918301828280156107bc5780601f10610791576101008083540402835291602001916107bc565b820191906000526020600020905b81548152906001019060200180831161079f57829003601f168201915b505050505081526020016006820154815260200160078201805480602002602001604051908101604052809291908181526020016000905b8282101561089f5760008481526020908190208301805460408051601f600260001961010060018716150201909416939093049283018590048502810185019091528181529283018282801561088b5780601f106108605761010080835404028352916020019161088b565b820191906000526020600020905b81548152906001019060200180831161086e57829003601f168201915b5050505050815260200190600101906107f4565b505050908252506008919091015460ff16151560209091015292915050565b60015481565b828054600181600116156101000203166002900490600052602060002090601f016020900481019282601f1061090557805160ff1916838001178555610932565b82800160010185558215610932579182015b82811115610932578251825591602001919060010190610917565b5061093e9291506109e9565b5090565b82805482825590600052602060002090810192821561098f579160200282015b8281111561098f578251805161097f9184916020909101906108c4565b5091602001919060010190610962565b5061093e929150610a06565b60405180610120016040528060008152602001606081526020016060815260200160008152602001606081526020016060815260200160008152602001606081526020016000151581525090565b610a0391905b8082111561093e57600081556001016109ef565b90565b610a0391905b8082111561093e576000610a208282610a29565b50600101610a0c565b50805460018160011615610100020316600290046000825580601f10610a4f5750610a6d565b601f016020900490600052602060002090810190610a6d91906109e9565b50565b600082601f830112610a8157600080fd5b8135610a94610a8f826110c2565b61109b565b81815260209384019390925082018360005b83811015610ad25781358601610abc8882610adc565b8452506020928301929190910190600101610aa6565b5050505092915050565b600082601f830112610aed57600080fd5b8135610afb610a8f826110e3565b91508082526020830160208301858383011115610b1757600080fd5b610b22838284611128565b50505092915050565b8035610b368161116e565b92915050565b60008060008060008060c08789031215610b5557600080fd5b863567ffffffffffffffff811115610b6c57600080fd5b610b7889828a01610adc565b965050602087013567ffffffffffffffff811115610b9557600080fd5b610ba189828a01610adc565b955050604087013567ffffffffffffffff811115610bbe57600080fd5b610bca89828a01610adc565b945050606087013567ffffffffffffffff811115610be757600080fd5b610bf389828a01610adc565b9350506080610c0489828a01610b2b565b92505060a087013567ffffffffffffffff811115610c2157600080fd5b610c2d89828a01610a70565b9150509295509295509295565b600060208284031215610c4c57600080fd5b6000610c588484610b2b565b949350505050565b6000610c6c8383610d51565b9392505050565b6000610c7e82611111565b610c888185611115565b935083602082028501610c9a8561110b565b8060005b85811015610cd45784840389528151610cb78582610c60565b9450610cc28361110b565b60209a909a0199925050600101610c9e565b5091979650505050505050565b6000610cec82611111565b610cf68185611115565b935083602082028501610d088561110b565b8060005b85811015610cd45784840389528151610d258582610c60565b9450610d308361110b565b60209a909a0199925050600101610d0c565b610d4b81611123565b82525050565b6000610d5c82611111565b610d668185611115565b9350610d76818560208601611134565b610d7f81611164565b9093019392505050565b6000610d9482611111565b610d9e818561111e565b9350610dae818560208601611134565b9290920192915050565b6000610dc5601883611115565b7f50726f64756374206e616d652069732072657175697265640000000000000000815260200192915050565b6000610dfe601183611115565b70141c9bd91d58dd081b9bdd08199bdd5b99607a1b815260200192915050565b6000610e2b601f83611115565b7f50726f64756374206465736372697074696f6e20697320746f6f206c6f6e6700815260200192915050565b8051600090610120840190610e6c8582610f31565b5060208301518482036020860152610e848282610d51565b91505060408301518482036040860152610e9e8282610d51565b9150506060830151610eb36060860182610f31565b5060808301518482036080860152610ecb8282610d51565b91505060a083015184820360a0860152610ee58282610d51565b91505060c0830151610efa60c0860182610f31565b5060e083015184820360e0860152610f128282610ce1565b915050610100830151610f29610100860182610d42565b509392505050565b610d4b81610a03565b6000610c6c8284610d89565b60c08082528101610f578189610d51565b9050610f666020830188610f31565b8181036040830152610f788187610d51565b90508181036060830152610f8c8186610d51565b9050610f9b6080830185610f31565b81810360a0830152610fad8184610c73565b98975050505050505050565b60208082528101610b3681610db8565b60208082528101610b3681610df1565b60208082528101610b3681610e1e565b60208082528101610c6c8184610e57565b60208101610b368284610f31565b6101008101611017828b610f31565b8181036020830152611029818a610d51565b9050818103604083015261103d8189610d51565b905061104c6060830188610f31565b818103608083015261105e8187610d51565b905081810360a08301526110728186610d51565b905061108160c0830185610f31565b61108e60e0830184610d42565b9998505050505050505050565b60405181810167ffffffffffffffff811182821017156110ba57600080fd5b604052919050565b600067ffffffffffffffff8211156110d957600080fd5b5060209081020190565b600067ffffffffffffffff8211156110fa57600080fd5b506020601f91909101601f19160190565b60200190565b5190565b90815260200190565b919050565b151590565b82818337506000910152565b60005b8381101561114f578181015183820152602001611137565b8381111561115e576000848401525b50505050565b601f01601f191690565b61117781610a03565b8114610a6d57600080fdfea365627a7a72315820207f7de221cf9c410902ef5b4da26bb38d0a113721b7a1cb6e273798a049ec1b6c6578706572696d656e74616cf564736f6c63430005100040",
  "source": "pragma solidity ^0.5.9;\r\npragma experimental ABIEncoderV2;\r\n\r\ncontract ProductRegistration {\r\n    struct Product {\r\n        uint256 id;\r\n        string productName;\r\n        string productDescription;\r\n        uint256 dateOfRegistration;\r\n        string geoLocation;\r\n        string batch;\r\n        uint256 price;\r\n        string[] certifications;\r\n        bool isRegistered;\r\n    }\r\n\r\n    mapping(uint256 => Product) public products;\r\n    uint256 public productCount = 0;\r\n\r\n    event ProductRegistered(\r\n        uint256 indexed id,\r\n        string indexed productName,\r\n        string productDescription,\r\n        uint256 dateOfRegistration,\r\n        string geoLocation,\r\n        string batch,\r\n        uint256 price,\r\n        string[] certifications\r\n    );\r\n\r\n    constructor() public {\r\n        string[] memory certifications1 = new string[](2);\r\n        certifications1[0] = \"Certification1\";\r\n        certifications1[1] = \"Certification2\";\r\n\r\n        registerProduct(\r\n            \"Product1\",\r\n            \"Product Description 1\",\r\n            \"Location1\",\r\n            \"Batch1\",\r\n            100,\r\n            certifications1\r\n        );\r\n\r\n        string[] memory certifications2 = new string[](2);\r\n        certifications2[0] = \"Certification3\";\r\n        certifications2[1] = \"Certification4\";\r\n\r\n        registerProduct(\r\n            \"Product2\",\r\n            \"Product Description 2\",\r\n            \"Location2\",\r\n            \"Batch2\",\r\n            200,\r\n            certifications2\r\n        );\r\n    }\r\n\r\n    function registerProduct(\r\n        string memory productName,\r\n        string memory productDescription,\r\n        string memory geoLocation,\r\n        string memory batch,\r\n        uint256 price,\r\n        string[] memory certifications\r\n    ) public {\r\n        require(bytes(productName).length > 0, \"Product name is required\");\r\n        require(\r\n            bytes(productDescription).length <= 500,\r\n            \"Product description is too long\"\r\n        );\r\n\r\n        productCount++;\r\n        products[productCount] = Product(\r\n            productCount,\r\n            productName,\r\n            productDescription,\r\n            block.timestamp,\r\n            geoLocation,\r\n            batch,\r\n            price,\r\n            certifications,\r\n            true\r\n        );\r\n        emit ProductRegistered(\r\n            productCount,\r\n            productName,\r\n            productDescription,\r\n            block.timestamp,\r\n            geoLocation,\r\n            batch,\r\n            price,\r\n            certifications\r\n        );\r\n    }\r\n\r\n    function getProduct(uint256 id) public view returns (Product memory) {\r\n        require(products[id].isRegistered, \"Product not found\");\r\n        return products[id];\r\n    }\r\n}\r\n",
  "sourcePath": "C:\\Users\\tdgal\\OneDrive\\Desktop\\Licentacod\\Licenta_WebSite\\ProductTracking\\smart-contracts\\contracts\\ProductRegistration.sol",
  "compiler": {
    "name": "solc",
    "version": "0.5.16+commit.9c3226ce.Emscripten.clang"
  },
  "schemaVersion": "3.4.14",
  "updatedAt": "2023-06-03T15:08:04.790Z",
  "networkType": "ethereum",
  "devdoc": {
    "methods": {}
  },
  "userdoc": {
    "methods": {}
  }
}